:100000000C94BE0B0C94DD0B0C94930D0C94DD0B37
:100010000C94DD0B0C94DD0B0C94DD0B0C94DD0BC0
:100020000C94DD0B0C94DD0B0C94DD0B0C94DD0BB0
:100030000C94DD0B0C94DD0B0C94DD0B0C94DD0BA0
:100040000C94DD0B0C94DD0B0C94870E0C94DD0BE3
:100050000C94DD0B0C94DD0B0C94DD0B0C94DD0B80
:100060000C94DD0B0C94DD0B0C94DD0B0C94DD0B70
:100070000C94DD0B0C94DD0B0C941A150C94DD0B19
:100080000C94DD0B0C94DD0B0C94DD0B036EDB3656
:100090003D9A9999993DABAAAA2A3E000000803F5B
:1000A000072C7AA5BA6CC590DA3B9365FC8BBC53E0
:1000B000F810FD3C5692834DBD879D3AB63DCBC9A5
:1000C000BF5BBE73DA0FC93F05A84CCDB2D44EB9A1
:1000D0003836A9020C50B9918688083CA6AAAA2AEB
:1000E000BE000000803F6364696E6F70737578585E
:1000F0005B0000407A10F35A00A0724E18090010FD
:10010000A5D4E80000E87648170000E40B5402008C
:1001100000CA9A3B000000E1F505000080969800B7
:10012000000040420F000000A086010000001027E0
:1001300000000000E8030000000064000000000070
:100140000A00000000000100000000002C76D888A2
:10015000DC674F0823DFC1DFAE59E1B1B796E5E3B5
:10016000E453C63AE651997696E8E6C28426EB89CE
:100170008C9B62ED407C6FFCEFBC9C9F40F2BAA56B
:100180006FA5F490055A2AF75C936B6CF9676DC103
:100190001BFCE0E40D47FEF520E6B500D0ED902E07
:1001A0000300943577050080841E080000204E0A65
:1001B000000000C80C333333330F986E12831141A3
:1001C000EF8D2114893BE65516CFFEE6DB18D1846E
:1001D0004B381BF77C1D901DA4BBE4242032847295
:1001E0005E228100C9F124ECA1E53D27000000005A
:1001F000000000000000000003FFFFC0000000003E
:10020000000000000000000003FFFFC0000000002D
:10021000000000000000000003FFFFC0000000001D
:10022000000000000000000003FFFFC0000000000D
:10023000000000000000000003FFFFC000000000FD
:10024000000000000000000003FFFFC000040000E9
:10025000000003FFFFFFFFFE03FFFFC000040000DC
:10026000000002000000000203FFFFC000040000C5
:10027000000002000000000203FFFFC000040000B5
:10028000000002000000000203FFFFC000040000A5
:10029000000002000000000203FFFFC00000000099
:1002A000000002000000000203FFFFC00000000089
:1002B000000002000000000203FFFFC00000000079
:1002C000000002000000000203FFFFC000404000E9
:1002D000000002000000000203FFFFC000208000B9
:1002E000000002000000000203FFFFC00011000038
:1002F000000002000000000203FFFFC0000A00002F
:10030000000002000000000203FFFFC00004000024
:10031000000002000000000203FFFFC00000000018
:10032000000002000000000203FFFFC00000000008
:10033000000002000000000203FFFFC000000000F8
:10034000000002000000000203FFFFC000000000E8
:10035000000002000000000203FFFFC000000000D8
:10036000000002000000000203FFFFC000000000C8
:10037000000002000000000203FFFFC003FFFFFFB8
:10038000FFFE02000000000203FFFFC002000000A9
:10039000000202000000000203FFFFC00200000094
:1003A000000202000000000203FFFFC00200000084
:1003B000000202000000000203FFFFC00200000074
:1003C000000202000000000203FFFFC00200000064
:1003D000000202000000000203FFFFC00200000054
:1003E000000202000000000203FFFFC00200000044
:1003F000000202000000000203FFFFC00200000034
:10040000000202000000000203FFFFC00200000023
:10041000000202000000000203FFFFC00200000013
:10042000000202000000000203FFFFC00200000003
:10043000000202000000000203FFFFC002000000F3
:10044000000202000000000203FFFFC002000000E3
:10045000000202000000000203FFFFC002000000D3
:10046000000202000000000203FFFFC002000000C3
:10047000000202000000000203FFFFC002000000B3
:10048000000202000000000203FFFFC002000000A3
:10049000000202000000000203FFFFC00200000093
:1004A000000202000000000203FFFFC00200000083
:1004B000000202000000000203FFFFC00200000073
:1004C000000202000000000203FFFFC00200000063
:1004D000000202000000000203FFFFC00200000053
:1004E000000202000000000203FFFFC00200000043
:1004F000000202000000000203FFFFC00200000033
:10050000000202000000000203FFFFC00200000022
:10051000000202000000000203FFFFC00200000012
:10052000000202000000000203FFFFC00200000002
:10053000000202000000000203FFFFC002000000F2
:10054000000202000000000203FFFFC002000000E2
:10055000000202000000000203FFFFC002000000D2
:10056000000202000000000203FFFFC002000000C2
:10057000000202000000000203FFFFC002000000B2
:10058000000202000000000203FFFFC002000000A2
:10059000000202000000000203FFFFC00200000092
:1005A000000202000000000203FFFFC00200000082
:1005B000000202000000000203FFFFC00200000072
:1005C000000202000000000203FFFFC00200000062
:1005D000000202000000000203FFFFC00200000052
:1005E000000202000000000203FFFFC00200000042
:1005F000000202000000000203FFFFC00200000032
:10060000000202000000000203FFFFC00200000021
:10061000000202000000000203FFFFC00200000011
:10062000000202000000000203FFFFC00200000001
:10063000000202000000000203FFFFC002000000F1
:10064000000202000000000203FFFFC002000000E1
:10065000000202000000000203FFFFC002000000D1
:10066000000202000000000203FFFFC002000000C1
:10067000000202000000000203FFFFC002000000B1
:10068000000202000000000203FFFFC002000000A1
:10069000000202000000000203FFFFC00200000091
:1006A000000202000000000203FFFFC00200000081
:1006B000000202000000000203FFFFC00200000071
:1006C000000202000000000203FFFFC00200000061
:1006D000000202000000000203FFFFC00200000051
:1006E000000202000000000203FFFFC00200000041
:1006F000000202000000000203FFFFC00200000031
:10070000000202000000000203FFFFC00200000020
:10071000000202000000000203FFFFC00200000010
:10072000000202000000000203FFFFC00200000000
:10073000000202000000000203FFFFC002000000F0
:10074000000202000000000203FFFFC002000000E0
:10075000000202000000000203FFFFC002000000D0
:10076000000202000000000203FFFFC002000000C0
:10077000000202000000000203FFFFC002000000B0
:10078000000202000000000203FFFFC002000000A0
:10079000000202000000000203FFFFC00200000090
:1007A000000202000000000203FFFFC00200000080
:1007B000000202000000000203FFFFC00200000070
:1007C000000202000000000203FFFFC00200000060
:1007D000000202000000000203FFFFC00200000050
:1007E000000202000000000203FFFFC00200000040
:1007F000000202000000000203FFFFC00200000030
:10080000000202000000000203FFFFC0020000001F
:10081000000202000000000203FFFFC0020000000F
:10082000000202000000000203FFFFC002000000FF
:10083000000202000000000203FFFFC002000000EF
:10084000000202000000000203FFFFC002000000DF
:10085000000202000000000203FFFFC002000000CF
:10086000000202000000000203FFFFC002000000BF
:10087000000202000000000203FFFFC002000000AF
:10088000000202000000000203FFFFC0020000009F
:10089000000202000000000203FFFFC0020000008F
:1008A000000202000000000203FFFFC0020000007F
:1008B000000202000000000203FFFFC0020000006F
:1008C000000202000000000203FFFFC0020000005F
:1008D000000202000000000203FFFFC0020000004F
:1008E000000202000000000203FFFFC0020000003F
:1008F000000202000000000203FFFFC0020000002F
:10090000000202000000000203FFFFC0020000001E
:10091000000202000000000203FFFFC0020000000E
:10092000000202000000000203FFFFC002000000FE
:10093000000202000000000203FFFFC002000000EE
:10094000000202000000000203FFFFC002000000DE
:10095000000202000000000203FFFFC002000000CE
:10096000000202000000000203FFBFC002000000FE
:10097000000202000000000203FFBFC002000000EE
:10098000000202000000000203FF7FC0020000001E
:10099000000202000000000203E03FC0020000006D
:1009A000000202000000000203FFFFC0020000007E
:1009B000000202000000000203F47FC002000000F9
:1009C000000202000000000203EDBFC002000000B0
:1009D000000202000000000203EDBFC002000000A0
:1009E000000202000000000203EDBFC00200000090
:1009F000000202000000000203EDBFC00200000080
:100A0000000202000000000203F07FC002000000AC
:100A1000000202000000000203FFFFC0020000000D
:100A2000000202000000000203FFFFC002000000FD
:100A3000000202000000000203FE3FC002000000AE
:100A4000000202000000000203F9FFC002000000E3
:100A5000000202000000000203E7FFC002000000E5
:100A6000000202000000000203F9FFC002000000C3
:100A7000000202000000000203FE3FC0020000006E
:100A8000000202000000000203FFFFC0020000009D
:100A9000000202000000000203FFFFC0020000008D
:100AA000000202000000000203E027C00200000074
:100AB000000202000000000203FFFFC0020000006D
:100AC000000202000000000203F47FC002000000E8
:100AD000000202000000000203EDBFC0020000009F
:100AE000000202000000000203EDBFC0020000008F
:100AF000000202000000000203EDBFC0020000007F
:100B0000000202000000000203EDBFC0020000006E
:100B1000000202000000000203F07FC0020000009B
:100B2000000202000000000203FFFFC002000000FC
:100B3000000202000000000203F77FC00200000074
:100B4000000202000000000203EFBFC0020000002C
:100B5000000202000000000203EFBFC0020000001C
:100B6000000202000000000203EFBFC0020000000C
:100B7000000202000000000203EFBFC002000000FC
:100B8000000202000000000203F07FC0020000002B
:100B9000000202000000000203FFFFC0020000008C
:100BA000000202000000000203F37FC00200000008
:100BB000000202000000000203EDBFC002000000BE
:100BC000000202000000000203EDBFC002000000AE
:100BD000000202000000000203EDBFC0020000009E
:100BE000000202000000000203EDBFC0020000008E
:100BF000000202000000000203F67FC002000000B5
:100C0000000202000000000203FFFFC0020000001B
:100C1000000202000000000203E07FC002000000AA
:100C2000000202000000000203FFBFC0020000003B
:100C3000000202000000000203FFBFC0020000002B
:100C4000000202000000000203FFBFC0020000001B
:100C5000000202000000000203FFBFC0020000000B
:100C6000000202000000000203E03FC0020000009A
:100C7000000202000000000203FFFFC002000000AB
:100C8000000202000000000203E07FC0020000003A
:100C9000000202000000000203F5BFC002000000D5
:100CA000000202000000000203EDBFC002000000CD
:100CB000000202000000000203EDBFC002000000BD
:100CC000000202000000000203EDBFC002000000AD
:100CD000000202000000000203F37FC002000000D7
:100CE000000202000000000203FFBFC0020000007B
:100CF000000202000000000203FFBFC0020000006B
:100D0000000202000000000203FF7FC0020000009A
:100D1000000202000000000203E03FC002000000E9
:100D2000000202000000000203FFF7C00200000002
:100D3000000202000000000203FFF7C002000000F2
:100D4000000202000000000203FFF7C002000000E2
:100D5000000202000000000203E007C002000000E1
:100D6000000202000000000203FFF7C002000000C2
:100D7000000202000000000203FFF7C002000000B2
:100D8000000202000000000203FFF7C002000000A2
:100D9000000202000000000203FFFFC0020000008A
:100DA000000202000000000203FFFFC0020000007A
:100DB000000202000000000203FFFFC0020000006A
:100DC000000202000000000203FFFFC0020000005A
:100DD000000202000000000203FFFFC0020000004A
:100DE000000202000000000203FFFFC0020000003A
:100DF000000202000000000203EFBFC0020000007A
:100E0000000202000000000203F00FC00200000018
:100E1000000202000000000203FFBFC00200000049
:100E2000000202000000000203FFFFC002000000F9
:100E3000000202000000000203E73FC002000000C1
:100E4000000202000000000203FAFFC002000000DE
:100E5000000202000000000203FDFFC002000000CB
:100E6000000202000000000203FAFFC002000000BE
:100E7000000202000000000203E73FC00200000081
:100E8000000202000000000203FFFFC00200000099
:100E9000000202000000000203F47FC00200000014
:100EA000000202000000000203EDBFC002000000CB
:100EB000000202000000000203EDBFC002000000BB
:100EC000000202000000000203EDBFC002000000AB
:100ED000000202000000000203EDBFC0020000009B
:100EE000000202000000000203F07FC002000000C8
:100EF000000202000000000203FFFFC00200000029
:100F0000000202000000000203FFFFC00200000018
:100F1000000202000000000203EFBFC00200000058
:100F2000000202000000000203F00FC002000000F7
:100F3000000202000000000203FFBFC00200000028
:100F4000000202000000000203FFFFC002000000D8
:100F5000000202000000000203FFFFC002000000C8
:100F6000000202000000000203FFFFC002000000B8
:100F7000000202000000000203FFFFC002000000A8
:100F8000000202000000000203E07FC00200000037
:100F9000000202000000000203F5BFC002000000D2
:100FA000000202000000000203EDBFC002000000CA
:100FB000000202000000000203EDBFC002000000BA
:100FC000000202000000000203EDBFC002000000AA
:100FD000000202000000000203F37FC002000000D4
:100FE000000202000000000203FFFFC00200000038
:100FF000000203FFFFFFFFFE03E10FC0020000003D
:10100000000200000000000003FEF7C00200000024
:10101000000200000000000003FEF7C00200000014
:10102000000200000000000003FEF7C00200000004
:10103000000200000000000003FEF7C002000000F4
:10104000000200000000000003FEF7C002000000E4
:10105000000200000000000003E007C002000000E2
:10106000000200000000010003FFFFC002000000BA
:10107000000200000000028003FFFFC00200000029
:10108000000200000000044003F07FC002000000E6
:10109000000200000000082003EFBFC002000000B3
:1010A000000200000000101003EFBFC002000000AB
:1010B000000200000000000003EFBFC002000000BB
:1010C000000200000000000003EFBFC002000000AB
:1010D000000200000000000003F07FC002000000DA
:1010E000000200000000010003EFFFC0020000004A
:1010F000000200000000010003EFFFC0020000003A
:10110000000200000000010003EFFFC00200000029
:10111000000200000000010003EFFFC003FFFFFF1B
:10112000FFFE00000000010003EFFFC00000000010
:10113000000000000000000003E007C00000000005
:10114000000000000000000003FFFFC000000000DE
:10115000000000000000000003FFFFC000000000CE
:10116000000000000000000003FFFFC000000000BE
:10117000000000000000000003FFFFC000000000AE
:10118000000000000000000003FFFFC0000000009E
:10119000000000000000000000000000000000004F
:1011A0000000000027FC0000000000000000001804
:1011B000001E00000018001E000000000240024C4B
:1011C00003F00E4C32F00F40324002003C0062301F
:1011D0004108FFFC4108409820F018007800841076
:1011E00084607B800DE03210C21001E08000780046
:1011F00070E08D10861083E0C400780000000000CD
:101200000000002000380000000000000000000086
:1012100080014006381C0FF00000000000000000B4
:101220000FF0381C600680010000000000400680BE
:10123000038000F0038006C0004000000000008032
:101240000080008007F00080008000800000000027
:10125000000078009800000000000000010001007C
:101260000100010001000100010001000000000078
:1012700000006000600000000000000000000002AC
:10128000001C00E003801C00600080000FF0700E66
:10129000C00380018001C00360061FF80000000049
:1012A0000000FFFF0008000800080000807C81C2E9
:1012B0008301820186018C019802E01C3F3C41427F
:1012C00080818081800180014002380C0800080084
:1012D000FFFF08060818086009800E001F0071C192
:1012E000C061802180218021404F70F03F0C4182FD
:1012F0008041804180418042618C1FF00003000DDD
:10130000003101C11E01E001000100013F3C61C24A
:1013100080818081808180C2413C3E000FF831860F
:101320004201820182018201418230FC0000000002
:10133000000018181818000000000000000000004D
:1013400000003C0C4C0C00000000000000000000FD
:101350001008081004200240018000000000024034
:1013600002400240024002400000000000000180F4
:10137000024004200810100800000000003C004457
:10138000008201026E0200020004001801F8460605
:1013900088018FE188114FE2300C0FF0C0003E0051
:1013A00005F0040F041F05E03E00C0003C00437C34
:1013B00080C38081808180818081FFFF1C1C60064A
:1013C0008001800180014002300C0FF00FF0300CE2
:1013D00040028001800180018001FFFF8001808147
:1013E00080818081808180818081FFFF00810081F8
:1013F00000810081008100810081FFFEFF1C6106E9
:10140000C10181018001C002700C0FF0FFFF00805C
:1014100000800080008000800080FFFF000000004E
:101420000000FFFF00000000000000003FFF400040
:10143000800080008000800040003800C001300241
:101440000C0C031000E000800100FFFF8000800012
:10145000800080008000800080007FFFFFFF000F81
:1014600003F07C00780007E0001FFFFFFFFF600033
:101470001800070000E000180006FFFF0FF0700ED4
:10148000C00380018001C003700E0FF0007C008259
:1014900001010101010101010101FFFF8FF0780E3F
:1014A0007003480140016003380E07F0FEFC038220
:1014B00001010101010101010101FFFF3E00431C87
:1014C00081038081808180C14042383C000100015D
:1014D00000010001FFFF0001000100011FFF60008B
:1014E000800080008000800060001FFF0003003C3F
:1014F00007C0F800F0000F800078000700070FF821
:10150000F80007FC007EFF800F80007FE003380CAE
:101510000E3001C003C00C38300EC0030003000CB5
:10152000003000C0FFC000F0001C00038003800DED
:10153000803980E183818E01B801E0010000000064
:10154000000080018001FFFF00000000008007F81C
:10155000F88007FC03E0FC8003F800808003800D26
:10156000803980E183818E01B801E00100400020D4
:101570000018000C000C00180020004080008000C3
:10158000800080008000800080008000000000005B
:101590000010000C00020000000000008000FFC0EE
:1015A0004460842084208420C86078C01F806060EC
:1015B000C03080108010C0306060FFFF318040403C
:1015C000802080208020C06060C03F00FFFF6060FE
:1015D000C03080108010C03060601F80270044C081
:1015E000842084208420842064C03F000000000008
:1015F00000110011FFFF0010000000003FF04860E4
:101600009010901090109010482067C0FFC00040CC
:10161000002000200020002000C0FFFF000000008C
:1016200000000000FFE300000000000000000000D8
:101630000000FFF3800080000000000080006020B8
:1016400030400C80070002000400FFFF0000000093
:1016500000000000FFFF000000000000FFC00020AD
:101660000060FF80006000200040FFE0FFC00060DD
:1016700000200020002000200040FFE01F0060C08C
:10168000C06080208020C06060C01F000FC0186054
:1016900020102010201020101860FFF0FFF01860BC
:1016A000201020102010201018600FC00000002013
:1016B00000200040FFE0000000000000000078C0B3
:1016C000CC6084208420C22033C0000000000000D1
:1016D00000008020FFFC002000000000FFE0600010
:1016E000C000800080008000C0003FE000E00700F4
:1016F0003800E000E0003C00078000E00FC0F00090
:101700003E0001E01E00E0001E0001E0802060E0DD
:1017100031800F000E00398060E0C0200060018041
:10172000060018007800C60081808060802080E07C
:1017300081A083208E209820B020E02000000000AF
:10174000800280027EFC0100010000000000000019
:1017500000000000FFFF000000000000000001008A
:1017600001007EFC8002800200000000000000807A
:1017700001000100008000800100000011241FBE54
:10178000CFEFD0E1DEBFCDBF12E0A0E0B1E0E4E1F9
:10179000F0E400E00BBF02C007900D92A037B10744
:1017A000D9F722E0A0E7B2E001C01D92AC3CB2073D
:1017B000E1F70E9476150C9408200C94000008951F
:1017C0000895089598E0C19887FF06C0C29A880FCF
:1017D000C19A9150C1F70895C298F9CFC498C5989D
:1017E0000E94E20BC49A0895C498C59A0E94E20B25
:1017F000C49A089580E10E94EE0B81E00E94F40BF0
:101800002FEF8FE392E0215080409040E1F700C03D
:1018100000000895B799FECF0895C6988FEF97E41A
:101820000197F1F700C00000C69A8FEF97E4019787
:10183000F1F700C000000E940A0C82E10E94EE0B4A
:101840000E940A0C81E00E94EE0B89EF0E94F40BCB
:1018500080E00E94F40B80E00E94F40B81E10E9482
:10186000EE0B81E00E94F40B84E40E94EE0B80E01A
:101870000E94F40B8FE00E94F40B85E40E94EE0BB3
:1018800089EF0E94F40B80E00E94F40B80E00E943C
:10189000F40B80E00E94F40B8CE30E94EE0B85E0D9
:1018A0000E94F40B81E20E94EE0B80E00E94F40B98
:1018B00080E80E94F40B88E10E94EE0B80E80E9411
:1018C000F40B8EE40E94EE0B80E00E94F40B8FE498
:1018D0000E94EE0B89EF0E94F40B80E00E94F40B53
:1018E0000C940A0C82E20E94EE0B87EF0E94F40B2C
:1018F00080E20E94EE0B0C940A0C0F931F93CF937F
:10190000DF938C0184E20E94EE0BD0E0C0E0F8018E
:10191000EC0FFD1F84910E94F40B2196C03A8FE0DA
:10192000D807A9F7DF91CF911F910F910C94720CFA
:1019300082E20E94EE0B8FEF0E94F40B80E20E9485
:10194000EE0B0C940A0C0F931F93CF93DF938C0133
:1019500084E20E94EE0BD0E0C0E0F801EC0FFD1F26
:1019600084910E94F40B2196C03A8FE0D807A9F722
:1019700086E20E94EE0BD0E0C0E0F801EC0FFD1F04
:1019800084910E94F40B2196C03A8FE0D807A9F702
:10199000DF91CF911F910F910C94720C4F925F9237
:1019A0006F927F928F929F92AF92BF92CF92DF926F
:1019B000EF92FF920F931F93CF93DF93FB013A01B6
:1019C00079016801EC0193E0D695C7959A95E1F706
:1019D00023E0169507952A95E1F7015011090C0FA0
:1019E0001D1F5B01512C6F3F710519F010F05F2E28
:1019F000BB24470181E0881A91088E0E9F1E412C5E
:101A00009FEF8916910419F010F0492C9924C6987B
:101A10008FEF97E40197F1F700C00000C69A8FEFAF
:101A200097E40197F1F700C000008CE30E94EE0BF1
:101A300080E80E94F40B84E40E94EE0B8C2F0E943D
:101A4000F40B802F0E94F40B85E40E94EE0B8A2D8C
:101A50000E94F40B852D0E94F40B882D0E94F40B3C
:101A6000842D0E94F40B8EE40E94EE0B8C2F0E94BA
:101A7000F40B8FE40E94EE0B8A2D0E94F40B852D4F
:101A80000E94F40B84E20E94EE0BCE9C8001CF9C5E
:101A9000100DDE9C100D112483E0169507958A9594
:101AA000E1F7D0E0C0E00C171D0791F4DF91CF9172
:101AB0001F910F91FF90EF90DF90CF90BF90AF906C
:101AC0009F908F907F906F905F904F900C94980CA8
:101AD000F301EC0FFD1F84910E94F40B2196E3CFDC
:101AE0000F931F93CF93DF9384E20E94EE0B0AEFD4
:101AF00010E0C0E1D0E08FEF0E94F40B2197D9F7FE
:101B000001501109B1F7DF91CF911F910F910C9402
:101B1000720C89B7826089BFEAE6F0E08081886054
:101B20008083789408958F938FB78F939F9380913C
:101B3000040291E08927809304029F918F918FBFC7
:101B40008F9118959C0190E080E08217930709F42B
:101B5000089542E04A95F1F700C00196F6CFEF9262
:101B6000FF920F931F93CF93DF93EC0180910402B8
:101B7000882399F060EA76E881E090E09E010D2EDE
:101B8000000C440B550B0E946916790110E000E02F
:101B90000E151F054CF082B382BBDF91CF911F91D0
:101BA0000F91FF90EF900895979ACE010E94A20D99
:101BB0009798CE010E94A20D0F5F1F4FE9CF87EFCC
:101BC00080939B0210929C0280919B028BBB86EFBC
:101BD0008A95F1F783B380958F7709F448C08830F0
:101BE00079F140F48230E1F0843011F1813081F0FC
:101BF00080E00895803261F1803491F18031C1F745
:101C000080919C0297E0899F802D11248B5F08951D
:101C100080919C0297E0899F802D11248F5F089509
:101C200080919C0297E0899F802D11248E5F0895FA
:101C300080919C0297E0899F802D11248D5F0895EB
:101C400080919C0297E0899F802D11248C5F0895DC
:101C500080919C0297E0899F802D11248A5F0895CE
:101C600090919C0287E0989F800D11240895909197
:101C70009B02990F916090939B0290919C029F5FB1
:101C800090939C02953008F49FCF0895CF930E94C3
:101C9000DF0DC82F0E94DF0DC11107C08C2FCF911F
:101CA00008950E94DF0D10929A028111FACFE091FF
:101CB0009A0284E2E89FF0011124E856FE4FEC0FEF
:101CC000F11D8081813129F482E080939A02C0E085
:101CD000E5CF823119F781E0F8CF1092900089B9F1
:101CE00059988AB18F768AB95298E5E9F0E08081F7
:101CF000877880838081866080830895882321F09F
:101D00008AB180698AB908958AB18F76FBCF1F9214
:101D10000F920FB60F9211240BB60F922F933F9391
:101D20004F935F936F937F938F939F93AF93BF93E3
:101D3000EF93FF934CB180919902E82FF0E0EB5CB8
:101D4000FE4F40838F5F80939902863090F48150DC
:101D5000990BFC01EB5CFE4F2081022E000C330B33
:101D60008F569E4FFC0180818217130611F010924E
:101D70009902E09199024D3069F4EB3058F0F0E0AF
:101D8000EB5CFE4F1082109299021092030180E0EA
:101D90000E947E0EFF91EF91BF91AF919F918F9125
:101DA0007F916F915F914F913F912F910F900BBE5B
:101DB0000F900FBE0F901F9018958F929F92AF9229
:101DC000BF92CF92DF92EF92FF920F931F93CF9328
:101DD000DF9300D000D000D0CDB7DEB7ACE7B1E0E4
:101DE0008D919C9124E6E22EF12CB7010E945516AC
:101DF0008B014C01ECE7F1E07183608360917E011F
:101E000070917F0180918001909181010E94BF17A4
:101E100020E030E543EC57E469837A838B839C832D
:101E200069817A818B819C810E944B175B016C01D7
:101E3000C401990CAA0BBB0B89839A83AB83BC8327
:101E4000BC01CD010E94BF179B01AC01A982BA82DF
:101E5000CB82DC8269817A818B819C810E94BF1652
:101E60005B016C01AB01BC01409382015093830183
:101E70006093840170938501C801110FAA0BBB0BFD
:101E800089839A83AB83BC83BC01CD010E94BF17B9
:101E90004B018C0120E030E040E752E4A982BA8295
:101EA000CB82DC8269817A818B819C810E944B1775
:101EB0009B01AC0189829A820B831C8369817A81A0
:101EC0008B819C810E94BF16E62F372F462F572FFC
:101ED000BC014093950250939602609397027093D1
:101EE000980203E111E025E048E0E9833A838B831F
:101EF0009C8369817A818B819C810E94B519809134
:101F0000860190918701B7010E9455168B015C01F3
:101F100070938701609386016091880170918901B7
:101F200080918A0190918B010E94BF1720E030E5DB
:101F300043EC57E469837A838B839C8369817A813C
:101F40008B819C810E944B176B017C01C501BB0CEE
:101F5000AA0BBB0B89839A83AB83BC83BC01CD01E5
:101F60000E94BF179B01AC01C982DA82EB82FC821E
:101F700069817A818B819C810E94BF166B017C01F3
:101F8000AB01BC0140938C0150938D0160938E0195
:101F900070938F01C801110FAA0BBB0B89839A8321
:101FA000AB83BC83BC01CD010E94BF178B018E8324
:101FB0009D8320E030E040E752E4C982DA82EB8280
:101FC000FC8269817A818B819C810E944B179B01E5
:101FD000AC0109831A839E819B83AD81AC836981A7
:101FE0007A818B819C810E94BF16E62F372F462F66
:101FF000572FBC0140939102509392026093930239
:102000007093940204E011E025E049E0E9833A830B
:102010008B839C8369817A818B819C810E94B51915
:1020200026960FB6F894DEBF0FBECDBFDF91CF91DD
:102030001F910F91FF90EF90DF90CF90BF90AF90E6
:102040009F908F9008950F931F93CF93DF9300D0AD
:1020500000D0CDB7DEB71A8219821C821B820CE633
:1020600011E0F80180819181099668E170E00E9499
:102070005516918380834AE0BE016F5F7F4F0E94B7
:10208000E2198981F80186838A8187834AE0BE014B
:102090006F5F7F4F828193810E94E2198981F801ED
:1020A00081878A8182874AE0BE016F5F7F4F84818A
:1020B00095810E94E2198981F80184878A81858748
:1020C00016860F900F900F900F90DF91CF911F9178
:1020D0000F9108952F923F924F925F926F927F924D
:1020E0008F929F92AF92BF92CF92DF92EF92FF9228
:1020F0000F931F93CF93DF93CDB7DEB728970FB61B
:10210000F894DEBF0FBECDBF2B013C0119014D83FA
:102110005E839701A80169835A828B837C826981DF
:102120007A818B819C810E94BE162BED3FE049E4B1
:1021300050E469837A838B839C8369817A818B8164
:102140009C810E94E51820E030E044E353E4698379
:102150007A838B839C8369817A818B819C810E94A5
:102160004B1720E030E040E05FE369837A838B83A4
:102170009C8369817A818B819C810E94E5186983A7
:102180007A838B839C8369817A818B819C810E9475
:1021900052194B0188879F832BED3FE049E450E4BF
:1021A00049825A826B827C8269817A818B819C818F
:1021B0000E94E51820E030E044E353E469837A8329
:1021C0008B839C8369817A818B819C810E944B17D0
:1021D00069837A838B839C8369817A818B819C81DB
:1021E0000E9446173B01582E492E2BED3FE049E453
:1021F00050E4E982FA820B831C8369817A818B81A6
:102200009C810E94E51820E030E044E353E46983B8
:102210007A838B839C8369817A818B819C810E94E4
:102220004B1769837A838B839C8369817A818B8145
:102230009C810E9446177B018C019501A601298291
:102240003A828D818B838E818C8369817A818B81A7
:102250009C810E94BE162BED3FE049E450E4698367
:102260007A838B839C8369817A818B819C810E9494
:10227000E51820E030E044E353E469837A838B83FC
:102280009C8369817A818B819C810E944B1720E01D
:1022900030E040E05FE369837A838B839C836981CC
:1022A0007A818B819C810E94E51869837A838B8374
:1022B0009C8369817A818B819C810E9452195B0188
:1022C0006C019701A80169827A825B824C826981E4
:1022D0007A818B819C810E94E5187B018C0195019C
:1022E000A601A982BA82CB82DC8269817A818B8144
:1022F0009C810E94E5189B01AC01E982FA820B8364
:102300001C8369817A818B819C810E94E5187B0105
:102310008C01940148855F8189829A8288858B83AC
:102320008F818C8369817A818B819C810E94E518E1
:102330009B01AC01E982FA820B831C8369817A815B
:102340008B819C810E94BF1669837A838B839C83D7
:1023500069817A818B819C810E94601969837A836B
:102360008B839C8369817A818B819C810E942B174E
:1023700020E038E147E456E469837A838B839C83C9
:1023800069817A818B819C810E94E51869837A83B7
:102390008B839C8369817A818B819C8128960FB67F
:1023A000F894DEBF0FBECDBFDF91CF911F910F918B
:1023B000FF90EF90DF90CF90BF90AF909F908F9065
:1023C0007F906F905F904F903F902F900895AF92C5
:1023D000BF92CF92DF92EF92FF920F931F93CF9312
:1023E000DF93EC01B12C99E0A92EE42EF12CC62E3E
:1023F000D12C8E010B0D111DF801808181110BC0B4
:10240000DF91CF911F910F91FF90EF90DF90CF90D0
:10241000BF90AF9008950E940D0CF801408140528A
:10242000550B84E0440F551F8A95E1F744575E4EE3
:10243000B701BA9C600D711D112400E110E028E085
:1024400030E0C6010E94CE0C0E94FA0BB394D1CFAB
:10245000CF93C82F8AB180698AB985EF91E0209126
:102460000301222341F0EFEFF7E43197F1F700C0C9
:1024700000000197A1F781E08093030180E991E0DA
:102480009F938F9380E791E09F938F938EE691E0E7
:102490009F938F938CE691E09F938F9388E891E0D0
:1024A0009F938F9386E891E09F938F938EE791E0BF
:1024B0009F938F938CE791E09F938F938CE292E0B0
:1024C0009F938F9385E391E09F938F930E94071AC8
:1024D0008DB79EB744960FB6F8949EBF0FBE8DBFC2
:1024E00080919001813449F048E26BE482E291E00E
:1024F0000E94E71180E0CF910895CC2321F00E9443
:10250000DD0E81E0F8CF0E942310FBCFCF93DF9345
:10251000CDB7DEB72C970FB6F894DEBF0FBECDBF98
:1025200086E0EDE5F2E0DE01179601900D928A95C6
:10253000E1F786E0E3E6F2E0DE01119601900D920C
:102540008A95E1F781E00E9428128823E1F08FE567
:1025500090E00E94AF0D48E26BE4CE0107960E9426
:10256000E71145E56BE483E191E00E94E71144E166
:1025700067E1CE0101960E94E71141E467E184E042
:1025800091E00E94E7112C960FB6F894DEBF0FBEC3
:10259000CDBFDF91CF91089580E00E942812811174
:1025A00006C048E26BE482E291E00C94E7118FE50B
:1025B00090E00E94AF0D48E26BE482E791E0F5CF36
:1025C0009C01AC0190E080E0FA014F5F5F4F7081A9
:1025D000711106C06083280F391FF9011182089517
:1025E00001968731910581F708959C01E091700271
:1025F000E80FF92FF11D608380917002280F311DC3
:10260000F9011182809170028F5F809370020895AA
:102610001092980080939900EBE9F0E080818D7F23
:102620008083EAE9F0E080818869808380818B7F04
:102630008083EDE9F0E08081877880838081866007
:102640008083089590919B0095FFFCCF80939C0020
:10265000089581E10E9422138DE00E9422138AE0F6
:102660000C942213AF92BF92CF92DF92EF92FF921F
:102670000F931F93CF93DF93CDB7DEB76E970FB64F
:10268000F894DEBF0FBECDBF8FE590E00E94AF0D86
:102690001E8A1D8A1F86188A198A1A8A1C8A1B8A12
:1026A0001B861C861D861E861A821982FE013396A1
:1026B00088E0DF011D928A95E9F781E00E942812E7
:1026C0000E942913BFEFEFE7F6E1B150E040F04080
:1026D000E1F700C0000089EE93E020910101222380
:1026E00021F0209102012111D6C081E080930101E7
:1026F00080930201CE010F969F938F9306969F932E
:102700008F9309E612E01F930F9382E892E09F9364
:102710008F930E94071ACE010B969F938F93089672
:102720009F938F931F930F9383E792E09F938F93D1
:102730000E94071A6B857C858D859E850E94BF1738
:1027400020E030E543EC57E46F8B788F898F9A8FC8
:102750006F89788D898D9A8D0E944B177B018C0132
:102760008B899C895C01990FCC08DD08AF8AB88EF3
:10277000C98EDA8EC601B5010E94BF179B01AC015C
:10278000EF8AF88E098F1A8F6F89788D898D9A8DCF
:102790000E94BF167B018C016F85788989899A898F
:1027A0000E94BF1720E030E543EC57E46F8B788F31
:1027B000898F9A8F6F89788D898D9A8D0E944B179A
:1027C0005B016C018D899E899C01990F440B550B0F
:1027D0002F8B388F498F5A8FCA01B9010E94BF17BA
:1027E0009B01AC01AF8AB88EC98EDA8E6F89788D65
:1027F000898D9A8D0E94BF1620919102309192028C
:102800004091930250919402A0909502B09096024C
:10281000C0909702D0909802AB8EBC8ECD8EDE8E8B
:10282000570168016F8B788F898F9A8FEF88F88CAA
:10283000098D1A8D6B8D7C8D8D8D9E8D0E946A10F9
:102840008E010F5F1F4F23E047E06F8B788F898FDA
:102850009A8F6F89788D898D9A8D0E94B5198BE634
:1028600088878DE689871A8648E26BE4C8010E9452
:10287000E7118BE490E00E94AF0D82E390E00E94AC
:10288000AF0D82E390E00E94AF0D0FB6F894DEBF6B
:102890000FBECDBF09C0AFEFB7E41197F1F700C08D
:1028A0000000019709F019CF6E960FB6F894DEBFBD
:1028B0000FBECDBFDF91CF911F910F91FF90EF9091
:1028C000DF90CF90BF90AF900895CF93DF93EC014E
:1028D0008991811108C08DE00E9422138AE0DF9166
:1028E000CF910C9422130E942213F2CF8AB18069F7
:1028F0008AB985EF91E020910301222341F0EFEFA7
:10290000F7E43197F1F700C000000197A1F781E0EB
:102910008093030180E991E09F938F9380E791E09A
:102920009F938F938EE691E09F938F938CE691E037
:102930009F938F9388E891E09F938F9386E891E02F
:102940009F938F938EE791E09F938F938CE791E015
:102950009F938F938CE292E09F938F9385E391E016
:102960009F938F930E94071A8DB79EB744960FB618
:10297000F8949EBF0FBE8DBF80919001813479F491
:102980000E94DD0E82E10E94221383E191E00E9409
:10299000651483E10E94221384E091E002C082E288
:1029A00091E00C94651480919E028231F9F083319C
:1029B00081F1813181F50E947614EEE9F2E0119205
:1029C00082E0E53BF807D9F708958E579D4F318196
:1029D000FC0130832F5F822F90E0FC01E256FD4F17
:1029E00030813111F2CF10920201E7CF20E0F3CF16
:1029F0008D589D4F3181FC0130832F5F822F90E0F5
:102A0000FC01E256FD4F30813111F2CF10920101ED
:102A1000D4CF20E0F3CF8FE590E00E94AF0D85E5A5
:102A200090E00E94AF0D48E26BE48EE992E00E94D4
:102A3000E711C3CF1F920F920FB60F9211240BB65E
:102A40000F922F933F934F935F936F937F938F9347
:102A50009F93AF93BF93EF93FF9360919C006D3072
:102A600031F06A30B9F08EE992E00E94E012FF91F5
:102A7000EF91BF91AF919F918F917F916F915F91F6
:102A80004F913F912F910F900BBE0F900FBE0F9063
:102A90001F9018950E94D314EACF8FEF8ABB8F9AAC
:102AA0008998919A8FE787BB14BA08950E94890D7F
:102AB0000E944D158FEF85BB8FE20E9408138FE2B5
:102AC0000E946D0E8FE590E00E94AF0D0E940D0CEC
:102AD0008CEE91E00E94A30C0E94FA0B8BE490E034
:102AE0000E94AF0D8FE390E00C94AF0D0E9456153D
:102AF00094E2D92E2CECE22E22E0F22ED9E00E94B4
:102B0000DF0D8823E1F300919A0210E00E94460E47
:102B1000D09EF001D19EF00D1124E856FE4FE80F33
:102B2000F11DC081CC2359F30E940D0CCD3031F141
:102B3000C03209F48DC0C83009F095C0809172028E
:102B40008150809372028091700281508093700254
:102B50000E940D0C609172026D9FB00111246C5E99
:102B60007F4F00E110E028E030E04CE851E187E1E0
:102B700090E00E94CE0C0E94FA0BC1CF8091B5026A
:102B8000843209F049C08091B6028736D9F4809129
:102B9000B702803761F48091B802833741F48CEE3C
:102BA00091E00E94A30C0E94FA0B0E948612E5EBB2
:102BB000F2E01192EE16FF06E1F710927202109207
:102BC00070029DCF843689F48091B702893679F7F7
:102BD0008091B802833759F78CEE91E00E94A30CE4
:102BE0000E94FA0B0E943213E2CF843701F78091E2
:102BF000B7028936E1F68091B8028D36C1F6809130
:102C0000B9028536A1F68CEE91E00E94A30C0E94D9
:102C1000FA0B0E94CC12CBCF85EB92E00E94651498
:102C200085E590E00E94AF0D8FE590E00E94AF0D2A
:102C30002FEF8FE793E4215080409040E1F700C0F0
:102C400000008CEE91E00E94A30C0E94FA0BAFCF23
:102C500060E285EB92E00E94F512809172028F5F34
:102C6000809372024CCF6C2F85EB92E00E94F5129C
:102C70008C2F8052990BAC0184E0440F551F8A952C
:102C8000E1F744575E4E609172026D9FB0011124CE
:102C90006C5E7F4F00E110E028E030E087E190E0DB
:102CA0000E94CE0C0E94FA0BD8CF97FB072E16F489
:102CB000009407D077FD09D00E94881607FC05D044
:102CC0003EF4909581959F4F0895709561957F4F43
:102CD0000895052E97FB1EF400940E94801657FD60
:102CE00007D00E949C1607FC03D04EF40C9480166B
:102CF00050954095309521953F4F4F4F5F4F089528
:102D000090958095709561957F4F8F4F9F4F089557
:102D1000AA1BBB1B51E107C0AA1FBB1FA617B70701
:102D200010F0A61BB70B881F991F5A95A9F780951D
:102D30009095BC01CD010895A1E21A2EAA1BBB1BE0
:102D4000FD010DC0AA1FBB1FEE1FFF1FA217B30777
:102D5000E407F50720F0A21BB30BE40BF50B661F8D
:102D6000771F881F991F1A9469F760957095809551
:102D700090959B01AC01BD01CF0108955058BB2730
:102D8000AA270E94D6160C9497180E945E1838F055
:102D90000E94651820F039F49F3F19F426F40C9432
:102DA00020180EF4E095E7FB0C941A18E92F0E9406
:102DB000BC1858F3BA17620773078407950720F009
:102DC00079F4A6F50C94DE180EF4E0950B2EBA2FCC
:102DD000A02D0B01B90190010C01CA01A001112421
:102DE000FF27591B99F0593F50F4503E68F11A16CD
:102DF000F040A22F232F342F4427585FF3CF46955E
:102E000037952795A795F0405395C9F77EF41F167F
:102E1000BA0B620B730B840BBAF09150A1F0FF0F49
:102E2000BB1F661F771F881FC2F70EC0BA0F621F35
:102E3000731F841F48F4879577956795B795F79525
:102E40009E3F08F0B0CF9395880F08F09927EE0FBA
:102E50009795879508959F939F77EEE389379E070F
:102E600028F4ECE8F0E00E944A180CC00E94FA171F
:102E70009058A2EA2AED3FE049EC5FE30E94D616A3
:102E80000E9497180F9007FC905808950E946E18A2
:102E9000E3950C94A8180E945F170C9497180E9451
:102EA000651858F00E945E1840F029F45F3F29F041
:102EB0000C941A1851110C94DF180C9420180E94CD
:102EC000BC1868F39923B1F3552391F3951B550B67
:102ED000BB27AA2762177307840738F09F5F5F4FED
:102EE000220F331F441FAA1FA9F335D00E2E3AF02C
:102EF000E0E832D091505040E695001CCAF72BD044
:102F0000FE2F29D0660F771F881FBB1F2617370794
:102F10004807AB07B0E809F0BB0B802DBF01FF27C6
:102F200093585F4F3AF09E3F510578F00C941A1871
:102F30000C94DF185F3FE4F3983ED4F386957795C1
:102F40006795B795F7959F5FC9F7880F911D96957F
:102F5000879597F90895E1E0660F771F881FBB1FDB
:102F6000621773078407BA0720F0621B730B840B88
:102F7000BA0BEE1F88F7E0950895E89409C097FB17
:102F80003EF490958095709561957F4F8F4F9F4F40
:102F90009923A9F0F92F96E9BB279395F695879584
:102FA00077956795B795F111F8CFFAF4BB0F11F447
:102FB00060FF1BC06F5F7F4F8F4F9F4F16C08823EE
:102FC00011F096E911C0772321F09EE8872F762F24
:102FD00005C0662371F096E8862F70E060E02AF065
:102FE0009A95660F771F881FDAF7880F9695879551
:102FF00097F90895DF93CF931F930F938B01EC0103
:10300000E0EAF0E00E9423180E9497189801AE01B0
:103010008B01EC0160E070E080E89FE30E94BE1647
:103020000E9460199801AE010F911F91CF91DF911D
:103030000C94F81897F99F6780E870E060E00895B5
:103040009FEF80EC0895DF93CF931F930F93FF9230
:10305000EF92DF927B018C01689406C0DA2EEF01BB
:103060000E94F818FE01E894A591259135914591AB
:103070005591A6F3EF010E94D616FE019701A80113
:10308000DA9469F7DF90EF90FF900F911F91CF9145
:10309000DF9108959F938F937F936F93FF93EF93A7
:1030A0009B01AC010E94E518EF91FF910E9423184B
:1030B0002F913F914F915F910C94E51800240A9451
:1030C0001616170618060906089500240A94121603
:1030D00013061406050608950C9420180E94C418BF
:1030E000D8F3E894E0E0BB279F57F0F02AED3FE0EB
:1030F00049EC06C0EE0FBB0F661F771F881F28F034
:10310000B23A62077307840728F0B25A620B730B56
:10311000840BE3959A9572F7803830F49A95BB0F3B
:10312000661F771F881FD2F790480C94A219092EAA
:103130000394000C11F4882352F0BB0F40F4BF2B12
:1031400011F460FF04C06F5F7F4F8F4F9F4F089552
:10315000EF93E0FF07C0A2EA2AED3FE049EC5FEB06
:103160000E94D6160E9497180F90039401FC905865
:10317000E8ECF0E00C944A1857FD9058440F551FA6
:1031800059F05F3F71F04795880F97FB991F61F0E9
:103190009F3F79F087950895121613061406551F60
:1031A000F2CF4695F1DF08C0161617061806991FCC
:1031B000F1CF86957105610508940895E894BB27C1
:1031C00066277727CB0197F908950E94F8180C9489
:1031D00097180E945E1838F00E94651820F0952319
:1031E00011F00C941A180C94201811240C94DF1868
:1031F0000E94BC1870F3959FC1F3950F50E0551FC6
:10320000629FF001729FBB27F00DB11D639FAA273B
:10321000F00DB11DAA1F649F6627B00DA11D661F8A
:10322000829F2227B00DA11D621F739FB00DA11DAB
:10323000621F839FA00D611D221F749F3327A00D65
:10324000611D231F849F600D211D822F762F6A2F01
:1032500011249F5750409AF0F1F088234AF0EE0F66
:10326000FF1FBB1F661F771F881F91505040A9F793
:103270009E3F510580F00C941A180C94DF185F3FA4
:10328000E4F3983ED4F3869577956795B795F795CF
:10329000E7959F5FC1F7FE2B880F911D9695879547
:1032A00097F908959F930E946E180F9007FCEE5FA8
:1032B0000C94A81819F416F40C9420180C94A01966
:1032C0000E94C418B8F39923C9F3B6F39F57550B5E
:1032D00087FF0E94AE190024A0E640EA90018058C2
:1032E0005695979528F4805C660F771F881F20F00D
:1032F00026173707480730F4621B730B840B20290D
:1033000031294A2BA69517940794202531254A2761
:1033100058F7660F771F881F20F0261737074807D2
:1033200030F4620B730B840B200D311D411DA095F1
:1033300081F7B901842F9158880F96958795089544
:103340009F3F31F0915020F4879577956795B79519
:10335000880F911D9695879597F908959150504043
:10336000660F771F881FD2F70895EF920F931F9370
:10337000CF93DF9300D000D00F92CDB7DEB7322FBE
:103380000D8354E047FD54E1242F27FD2195E52EC0
:10339000032F4D81512F69837A838B839C836981AD
:1033A0007A818B819C810E94141D8D81912F0F90B9
:1033B0000F900F900F900F90DF91CF911F910F9171
:1033C000EF900895BB274A3031F4992322F4BDE2EF
:1033D000909581959F4F0C94EE19BB27FB015527C3
:1033E000AA27880F991FAA1FA41710F0A41B839562
:1033F0005051B9F7A05DAA3308F0A95DA1930097D9
:1034000079F7B111B1931192CB010C949F1FCF9317
:10341000DF93CDB7DEB72E970FB6F894DEBF0FBEA1
:10342000CDBF85E08C838B899C899A838983AE018B
:10343000495E5F4F6D897E89CE0101960E94D71B40
:103440002E960FB6F894DEBF0FBECDBFDF91CF91A1
:103450000895FC01CA01DB0120FD08C023FD05C061
:1034600022FF02C0B383A283918380830895CF9209
:10347000DF92EF92FF92CF93DF9300D000D0CDB7D1
:10348000DEB76B017C0183E044FD10C084E046FDA3
:103490000DC0D601F701AA0FBB1FEE1FFF1F10942E
:1034A000D1F7CA0EDB1EEE1EFF1E81E0CC0CDD1C28
:1034B000EE1CFF1C8150D1F7D701C601820F911D70
:1034C000A11DB11DBC01CD010F900F900F900F9069
:1034D000DF91CF91FF90EF90DF90CF9008950F9301
:1034E0001F93CF93DF938C01C8010E94AF1FEC01A3
:1034F00097FD08C00E948B1F892BB1F7B801CE0140
:103500000E94ED1FCE01DF91CF911F910F91089581
:10351000AF92BF92CF92DF92EF92FF920F931F93E1
:10352000CF93DF938C01C62F5A01F22E0E94AF1F5A
:10353000FC019927EB3221F08D97B1F46894F7F8EC
:10354000C15061F480E0DF91CF911F910F91FF9006
:10355000EF90DF90CF90BF90AF900895C8010E9488
:10356000AF1FFC0197FDEECFDF2DDD7F8F2D807328
:1035700009F5E033F9F4EE24EA94EC0EC13091F051
:10358000C8010E94AF1FFC0197FD0CC08F7D8835DC
:1035900069F4D264C25031F0C8010E94AF1FFC012F
:1035A00097FF08C0C12CD12C76011CC0F6FE2CC0A0
:1035B000D260CE2DC12CD12C760120ED2E0F2830DB
:1035C00030F1D4FD09C02A3010F1D6FF05C02F7D9F
:1035D0008FEE820F8630D0F0B801CF010E94ED1F30
:1035E000D1FFB0CFD7FF08C0F094E094D094C0943E
:1035F000C11CD11CE11CF11C2D2FB701A601C50176
:103600000E94291A81E09FCFD261D3CF27504D2F3E
:10361000C701B6010E94371A6B017C01D260C1500C
:1036200009F3C8010E94AF1FFC0197FFC6CFD8CF96
:103630008F929F92AF92BF92CF92DF92EF92FF92C2
:103640000F931F93CF93DF93CDB7DEB7A0970FB63D
:10365000F894DEBF0FBECDBF6C01962E7A01CE016D
:1036600001965C0180E2F50111928A95E9F7F60175
:103670008380890150E040E0B0E020E0A0E061E01C
:1036800070E0F80183FC959183FE9191892F8F0161
:10369000911116C010E000E0C801A0960FB6F89492
:1036A000DEBF0FBECDBFDF91CF911F910F91FF9075
:1036B000EF90DF90CF90BF90AF909F908F90089544
:1036C0009E3519F44115510531F1A4171506ECF496
:1036D0009D3549F19D32C9F4222309F1E82FE69581
:1036E000E695E695EA0DFB2DF11D982F97709B014D
:1036F00001C0220F9A95EAF79081292B20838B171E
:1037000081F08B1730F48F5FE9CF2111E7CFB92F0C
:10371000E5CF8150E3CFA1E04F5F5F4FB2CF21E013
:10372000FBCF20E0F9CF222319F08E8180628E83B7
:10373000AA2361F0F5019E012F5D3F4F8081DF01DB
:10374000319680958C93E217F307C1F78824839410
:10375000C6010E94AF1F97FD16C0E82FE695E695BB
:10376000E695EA0DFB2DF11D208130E0AC0147709C
:10377000552702C0359527954A95E2F720FD06C0EA
:10378000B6010E94ED1F882059F084CFE114F104A6
:1037900019F0F70181937F019A94812C9110D8CF71
:1037A000E114F10409F478CFF701108275CF6F921C
:1037B0007F928F929F92AF92BF92CF92DF92EF92C1
:1037C000FF920F931F93CF93DF9300D000D000D0D0
:1037D000CDB7DEB75C016D837E83742E652EDC0170
:1037E00017961C921E921697C12CD5011396FC9029
:1037F000ED81FE81F3FC8591F3FE8191182FFE830C
:10380000ED838823F9F090E00E948B1F892B21F033
:10381000C5010E946F1AE9CF153251F4ED81FE8186
:10382000F3FC1591F3FE1191FE83ED83153269F4DB
:10383000C5010E94AF1F97FDA2C01817B1F2B501D4
:103840000E94ED1F8C2D90E09EC000E01A3249F4DA
:10385000ED81FE81F3FC1591F3FE1191FE83ED8362
:1038600001E0D12C20ED210F2A3060F101FF42C090
:10387000DD2041F3183609F440C01C3609F449C074
:10388000112301F3612F70E086EE90E00E94941FF7
:10389000892BC1F2F12CE12C00FD06C0E72DF62D9D
:1038A000E190F1907E2E6F2E1E3609F03CC0D501BE
:1038B00016964D915C9170E060E0202FC7010E9448
:1038C000291A93CF02608D2D90E0B0E0A0E08983AB
:1038D0009A83AB83BC8340E2BC01CD010E94371ABE
:1038E000D62EED81FE81F3FC1591F3FE1191FE833E
:1038F000ED83B8CFDD24DA94BDCFED81FE81F3FCFA
:103900001591F3FE1191FE83ED83183609F0B8CFBF
:1039100008600460ED81FE81F3FC1591F3FE1191C6
:10392000FE83ED83ADCF1336B1F401FD02C0DD247B
:10393000D394C5010E94AF1F97FD21C0E114F1048B
:1039400019F0F70181937F01DA94D110F2CF00FDD5
:103950004CCFC3944ACF1B3559F52D813E81A70129
:103960006D2DC5010E94181B8D839E83ED81FE8104
:10397000EF2B69F7F5018381807309F463CF8FEF33
:103980009FEFC1105FCF26960FB6F894DEBF0FBE33
:10399000CDBFDF91CF911F910F91FF90EF90DF90FE
:1039A000CF90BF90AF909F908F907F906F90089531
:1039B000C5010E946F1A97FDE2CF1F3699F130F4CE
:1039C000143641F0193639F0006405C01337A9F0F8
:1039D0001537D1F70062202FA7016D2DC5010E9478
:1039E000881A8111B4CFC6CFE114F10419F0F701A0
:1039F00081927F01DA94DD2071F0C5010E94AF1F32
:103A00004C0197FD08C00E948B1F892B69F3B501FB
:103A1000C4010E94ED1FE114F10409F498CFD7010D
:103A20001C9295CF0061D7CF6F927F929F92AF92F9
:103A3000BF92CF92DF92EF92FF920F931F93CF939B
:103A4000DF93CDB7DEB72D970FB6F894DEBF0FBE6C
:103A5000CDBF6A01122FB02EFBE36F2E601608F463
:103A60000BE3FF24F394F00E0F2D27E0AE014F5F20
:103A70005F4F6A877B878C879D876A857B858C856E
:103A80009D850E94B31EAC01A9808A2D89703DE2FC
:103A9000813039F03BE2E1FC04C03E2D3170E0FCA6
:103AA00030E20E2D0071EA2DE870A3FE59C083E0CC
:103AB000311184E08117A8F5181B002309F43FC0D9
:103AC000332319F0F60131936F01F6013396E2FECC
:103AD0003BC08EE4D6018C9391E411969C93119790
:103AE00012968C93812F9E2F2F2F30E2811131C09F
:103AF000E10FF11D10828EEF9FEF2D960FB6F89417
:103B0000DEBF0FBECDBFDF91CF911F910F91FF9010
:103B1000EF90DF90CF90BF90AF909F907F906F908D
:103B2000089510E0CACFE92FF22F419381509E2FC4
:103B30002F2F8111F8CFC10ED11C10E0C1CF812FE2
:103B40009C2D2D2D40E2F5CF8EE6D6018C9391E68B
:103B5000C4CFA92FB22F3D9381509A2F2B2FC6CFC0
:103B60002A2D2470A2FE47C083E0311184E0811722
:103B700010F4E12FE81B002349F1332319F0D6019B
:103B80003D936D01C6010396E2FE25C029E4D601EE
:103B90002C932EE411962C93119726E412962C93D5
:103BA0002E2F382F492F50E221111EC0E80FF92F78
:103BB000F11DA0CFA92FB22F4D9381509A2F2B2FFB
:103BC0008111F8CFCE0ED11CE0E0D7CF8E2F9C2DE7
:103BD0002D2D40E2F5CF29E6D6012C932EE6119645
:103BE0002C93119726E6DACFA32FB42F5D932150A3
:103BF0003A2F4B2FD9CFBA0157FF02C070E060E0D7
:103C0000E1E0F0E0311102C0F0E0E0E0CB0101962C
:103C1000E80FF91F8B2D90E0DC011196B11002C066
:103C2000B0E0A0E0EA0FFB1F1E171F0619F014F00A
:103C3000212F2E1B011194C0D601E22FF0E2E3FEEA
:103C400051C0332329F0F60131936F01011108C0EF
:103C5000F601322FA0E331114BC0C20ED11C20E07F
:103C60000F2D040F3A81FA2DF071BF2EA4FE03C070
:103C7000313309F401501016F4F5093008F008E06A
:103C8000DB017A01E01AF10800271127081B190B44
:103C9000EEE29E2E4A175B0784F1EA16FB066CF5EE
:103CA000FA01EA1BFB0B66246394712C6C0E7D1EDB
:103CB000E60DF71DA18011973601EFEF6E1A7E0A0F
:103CC000A017B107ECF0F601A082AF3FBA0731F4BC
:103CD0003601E2E06E0E711CF60191826301DACFCB
:103CE000FD93E150E111FCCFC20ED11C20E0A9CF21
:103CF000A1933150B0CF01E0C3CFE0E3AE2EDBCFD4
:103D000080959095861797070CF5861B970B019663
:103D100061507109860F971F4817590741F43633D0
:103D200020F4353321F4B11002C081E3A82ED6016E
:103D3000AC92822F962D372D40E281110AC0F301FB
:103D4000E20FF11D108290E080E0D7CE90E080E09D
:103D5000DFCFA92FB32F4D9381509A2F3B2FEDCF5B
:103D6000311171CF7DCF283008F027E03327DA01F9
:103D7000990F311D87FD916000966105710539F439
:103D800032602E5F3D9330E32A95E1F708959F3F1F
:103D900030F080387105610509F03C5F3C5F3D9370
:103DA000913008F08068911DDF93CF931F930F939C
:103DB000FF92EF92192F987F9695E92F96959695F9
:103DC000E90FFF27E45BFE4F99273327EE24FF24FA
:103DD000A701E70105900894079428F4360FE71E21
:103DE000F81E491F511D660F771F881F991F0694E3
:103DF000A1F70590079428F4E70EF81E491F561FF7
:103E0000C11D770F881F991F661F0694A1F70590A3
:103E1000079428F4F80E491F561FC71FD11D880F9D
:103E2000991F661F771F0694A1F70590079420F449
:103E3000490F561FC71FD81F990F661F771F881F6E
:103E40000694A9F784911095177041F0D695C795FF
:103E500057954795F794E7941A95C1F7E2EFF0E08C
:103E600068941590159135916591959105907FE233
:103E70007395E118F10A430B560BC90BD009C0F733
:103E8000E10CF11E431F561FC91FD01D7EF4703375
:103E900011F48A95E6CFE894015030F0080F0AF447
:103EA0000027021708F4202F2395022F7A3328F0D9
:103EB00079E37D932A95E9F710C07D932A9589F6D9
:103EC000069497956795379517951794E118F10A19
:103ED000430B560BC90BD00998F023957E9173952F
:103EE0007A3308F070E37C932013B8F77E91706109
:103EF0007D9330F0839571E37D9370E32A95E1F72C
:103F00001124EF90FF900F911F91CF91DF9199278E
:103F100087FD9095089591110C940520803219F039
:103F200089508550C8F70895FC010590061621F0C8
:103F30000020D9F7C00108953197CF010895DC0121
:103F4000FC01672F71917723E1F7329704C07C91D0
:103F50006D9370836291AE17BF07C8F30895CF9336
:103F6000DF93EC018B8180FF33C086FF0CC08F7B19
:103F70008B838E819F8101969F838E838A8190E0BF
:103F8000DF91CF91089582FF15C0E881F98190817A
:103F9000292F092E000C330B80629923C1F0319632
:103FA000F983E8838E819F8101969F838E83C90167
:103FB0009927E6CFEA85FB85CE0109959C0197FFFD
:103FC000F1CF8B812F3F3F4F31F090E2892B8B83D4
:103FD0008FEF9FEFD5CF90E1F9CFFB01238120FF39
:103FE00011C026FD0FC08F3F980771F082832F7D8F
:103FF000206423832681378121503109378326832A
:10400000992708958FEF9FEF08959927882708959E
:04401000F894FFCF52
:104014000101010120000000000000000000000078
:10402400000000200000000000000000000000006C
:104034000000475053206E6F7420636F6E6E65638B
:1040440074656421002000000000000000000000EE
:10405400000000000000000000000000000000005C
:10406400000000000000000000000000000000004C
:10407400000000000000000000000000000000003C
:10408400000039396839396D39397300000000008E
:10409400000000000000000000000000000000001C
:1040A40076244750474C4C00007177006111200082
:1040B40065736470787A12726774127663667568D1
:1040C400790D626E6A6F6C6908246D6B005157003C
:1040D4004111200045534450585A12524754125625
:1040E40043465548590D424E4A4F4C49083D4D4BA5
:1040F400002331002A11203032343540383712334E
:104104002F28123F39365F3A290D212C3B2B222DC3
:10411400083D2E60012474696D6500246469730090
:1041240024677073002020202020202020202020BD
:104134002020202020202020202020002447504719
:104144004C4C2C25642E256C642C252A632C256468
:104154002E256C642C252A632C2532642532642593
:1041640032642E30302C25632C252A73006C617444
:10417400693A006C6F67693A0025642E256C640007
:00000001FF
