:100000000C94BE0B0C94DD0B0C94930D0C94DD0B37
:100010000C94DD0B0C94DD0B0C94DD0B0C94DD0BC0
:100020000C94DD0B0C94DD0B0C94DD0B0C94DD0BB0
:100030000C94DD0B0C94DD0B0C94DD0B0C94DD0BA0
:100040000C94DD0B0C94DD0B0C94870E0C94DD0BE3
:100050000C94DD0B0C94DD0B0C94DD0B0C94DD0B80
:100060000C94DD0B0C94DD0B0C94DD0B0C94DD0B70
:100070000C94DD0B0C94DD0B0C9427150C94DD0B0C
:100080000C94DD0B0C94DD0B0C94DD0B036EDB3656
:100090003D9A9999993DABAAAA2A3E000000803F5B
:1000A000072C7AA5BA6CC590DA3B9365FC8BBC53E0
:1000B000F810FD3C5692834DBD879D3AB63DCBC9A5
:1000C000BF5BBE73DA0FC93F05A84CCDB2D44EB9A1
:1000D0003836A9020C50B9918688083CA6AAAA2AEB
:1000E000BE000000803F6364696E6F70737578585E
:1000F0005B0000407A10F35A00A0724E18090010FD
:10010000A5D4E80000E87648170000E40B5402008C
:1001100000CA9A3B000000E1F505000080969800B7
:10012000000040420F000000A086010000001027E0
:1001300000000000E8030000000064000000000070
:100140000A00000000000100000000002C76D888A2
:10015000DC674F0823DFC1DFAE59E1B1B796E5E3B5
:10016000E453C63AE651997696E8E6C28426EB89CE
:100170008C9B62ED407C6FFCEFBC9C9F40F2BAA56B
:100180006FA5F490055A2AF75C936B6CF9676DC103
:100190001BFCE0E40D47FEF520E6B500D0ED902E07
:1001A0000300943577050080841E080000204E0A65
:1001B000000000C80C333333330F986E12831141A3
:1001C000EF8D2114893BE65516CFFEE6DB18D1846E
:1001D0004B381BF77C1D901DA4BBE4242032847295
:1001E0005E228100C9F124ECA1E53D27FFFFFFFF5E
:1001F000FFFFFFFFFFFFFFFFFC000000FFFFFFFF0F
:10020000FFFFFFFFFFFFFFFFFC000000FFFFFFFFFE
:10021000FFFFFFFFFFFFFFFFFC000000FFFFFFFFEE
:10022000FFFFFFFFFFFFFFFFFC000000FFFFFFFFDE
:10023000FFFFFFFFFFFFFFFFFC000000FFFFFFFFCE
:10024000FFFFFFFFFFFFFFFFFC000000FFFBFFFFC2
:10025000FFFFFC0000000001FC000000FFFBFFFFAF
:10026000FFFFFDFFFFFFFFFDFC000000FFFBFFFFA6
:10027000FFFFFDFFFFFFFFFDFC000000FFFBFFFF96
:10028000FFFFFDFFFFFFFFFDFC000000FFFBFFFF86
:10029000FFFFFDFFFFFFFFFDFC000000FFFFFFFF72
:1002A000FFFFFDFFFFFFFFFDFC000000FFFFFFFF62
:1002B000FFFFFDFFFFFFFFFDFC000000FFFFFFFF52
:1002C000FFFFFDFFFFFFFFFDFC000000FFBFBFFFC2
:1002D000FFFFFDFFFFFFFFFDFC000000FFDF7FFFD2
:1002E000FFFFFDFFFFFFFFFDFC000000FFEEFFFF33
:1002F000FFFFFDFFFFFFFFFDFC000000FFF5FFFF1C
:10030000FFFFFDFFFFFFFFFDFC000000FFFBFFFF05
:10031000FFFFFDFFFFFFFFFDFC000000FFFFFFFFF1
:10032000FFFFFDFFFFFFFFFDFC000000FFFFFFFFE1
:10033000FFFFFDFFFFFFFFFDFC000000FFFFFFFFD1
:10034000FFFFFDFFFFFFFFFDFC000000FFFFFFFFC1
:10035000FFFFFDFFFFFFFFFDFC000000FFFFFFFFB1
:10036000FFFFFDFFFFFFFFFDFC000000FFFFFFFFA1
:10037000FFFFFDFFFFFFFFFDFC000000FC00000091
:100380000001FDFFFFFFFFFDFC000000FDFFFFFF80
:10039000FFFDFDFFFFFFFFFDFC000000FDFFFFFF75
:1003A000FFFDFDFFFFFFFFFDFC000000FDFFFFFF65
:1003B000FFFDFDFFFFFFFFFDFC000000FDFFFFFF55
:1003C000FFFDFDFFFFFFFFFDFC000000FDFFFFFF45
:1003D000FFFDFDFFFFFFFFFDFC000000FDFFFFFF35
:1003E000FFFDFDFFFFFFFFFDFC000000FDFFFFFF25
:1003F000FFFDFDFFFFFFFFFDFC000000FDFFFFFF15
:10040000FFFDFDFFFFFFFFFDFC000000FDFFFFFF04
:10041000FFFDFDFFFFFFFFFDFC000000FDFFFFFFF4
:10042000FFFDFDFFFFFFFFFDFC000000FDFFFFFFE4
:10043000FFFDFDFFFFFFFFFDFC000000FDFFFFFFD4
:10044000FFFDFDFFFFFFFFFDFC000000FDFFFFFFC4
:10045000FFFDFDFFFFFFFFFDFC000000FDFFFFFFB4
:10046000FFFDFDFFFFFFFFFDFC000000FDFFFFFFA4
:10047000FFFDFDFFFFFFFFFDFC000000FDFFFFFF94
:10048000FFFDFDFFFFFFFFFDFC000000FDFFFFFF84
:10049000FFFDFDFFFFFFFFFDFC000000FDFFFFFF74
:1004A000FFFDFDFFFFFFFFFDFC000000FDFFFFFF64
:1004B000FFFDFDFFFFFFFFFDFC000000FDFFFFFF54
:1004C000FFFDFDFFFFFFFFFDFC000000FDFFFFFF44
:1004D000FFFDFDFFFFFFFFFDFC000000FDFFFFFF34
:1004E000FFFDFDFFFFFFFFFDFC000000FDFFFFFF24
:1004F000FFFDFDFFFFFFFFFDFC000000FDFFFFFF14
:10050000FFFDFDFFFFFFFFFDFC000000FDFFFFFF03
:10051000FFFDFDFFFFFFFFFDFC000000FDFFFFFFF3
:10052000FFFDFDFFFFFFFFFDFC000000FDFFFFFFE3
:10053000FFFDFDFFFFFFFFFDFC000000FDFFFFFFD3
:10054000FFFDFDFFFFFFFFFDFC000000FDFFFFFFC3
:10055000FFFDFDFFFFFFFFFDFC000000FDFFFFFFB3
:10056000FFFDFDFFFFFFFFFDFC000000FDFFFFFFA3
:10057000FFFDFDFFFFFFFFFDFC000000FDFFFFFF93
:10058000FFFDFDFFFFFFFFFDFC000000FDFFFFFF83
:10059000FFFDFDFFFFFFFFFDFC000000FDFFFFFF73
:1005A000FFFDFDFFFFFFFFFDFC000000FDFFFFFF63
:1005B000FFFDFDFFFFFFFFFDFC000000FDFFFFFF53
:1005C000FFFDFDFFFFFFFFFDFC000000FDFFFFFF43
:1005D000FFFDFDFFFFFFFFFDFC000000FDFFFFFF33
:1005E000FFFDFDFFFFFFFFFDFC000000FDFFFFFF23
:1005F000FFFDFDFFFFFFFFFDFC000000FDFFFFFF13
:10060000FFFDFDFFFFFFFFFDFC000000FDFFFFFF02
:10061000FFFDFDFFFFFFFFFDFC000000FDFFFFFFF2
:10062000FFFDFDFFFFFFFFFDFC000000FDFFFFFFE2
:10063000FFFDFDFFFFFFFFFDFC000000FDFFFFFFD2
:10064000FFFDFDFFFFFFFFFDFC000000FDFFFFFFC2
:10065000FFFDFDFFFFFFFFFDFC000000FDFFFFFFB2
:10066000FFFDFDFFFFFFFFFDFC000000FDFFFFFFA2
:10067000FFFDFDFFFFFFFFFDFC000000FDFFFFFF92
:10068000FFFDFDFFFFFFFFFDFC000000FDFFFFFF82
:10069000FFFDFDFFFFFFFFFDFC000000FDFFFFFF72
:1006A000FFFDFDFFFFFFFFFDFC000000FDFFFFFF62
:1006B000FFFDFDFFFFFFFFFDFC000000FDFFFFFF52
:1006C000FFFDFDFFFFFFFFFDFC000000FDFFFFFF42
:1006D000FFFDFDFFFFFFFFFDFC000000FDFFFFFF32
:1006E000FFFDFDFFFFFFFFFDFC000000FDFFFFFF22
:1006F000FFFDFDFFFFFFFFFDFC000000FDFFFFFF12
:10070000FFFDFDFFFFFFFFFDFC000000FDFFFFFF01
:10071000FFFDFDFFFFFFFFFDFC000000FDFFFFFFF1
:10072000FFFDFDFFFFFFFFFDFC000000FDFFFFFFE1
:10073000FFFDFDFFFFFFFFFDFC000000FDFFFFFFD1
:10074000FFFDFDFFFFFFFFFDFC000000FDFFFFFFC1
:10075000FFFDFDFFFFFFFFFDFC000000FDFFFFFFB1
:10076000FFFDFDFFFFFFFFFDFC000000FDFFFFFFA1
:10077000FFFDFDFFFFFFFFFDFC000000FDFFFFFF91
:10078000FFFDFDFFFFFFFFFDFC000000FDFFFFFF81
:10079000FFFDFDFFFFFFFFFDFC000000FDFFFFFF71
:1007A000FFFDFDFFFFFFFFFDFC000000FDFFFFFF61
:1007B000FFFDFDFFFFFFFFFDFC000000FDFFFFFF51
:1007C000FFFDFDFFFFFFFFFDFC000000FDFFFFFF41
:1007D000FFFDFDFFFFFFFFFDFC000000FDFFFFFF31
:1007E000FFFDFDFFFFFFFFFDFC000000FDFFFFFF21
:1007F000FFFDFDFFFFFFFFFDFC000000FDFFFFFF11
:10080000FFFDFDFFFFFFFFFDFC000000FDFFFFFF00
:10081000FFFDFDFFFFFFFFFDFC000000FDFFFFFFF0
:10082000FFFDFDFFFFFFFFFDFC000000FDFFFFFFE0
:10083000FFFDFDFFFFFFFFFDFC000000FDFFFFFFD0
:10084000FFFDFDFFFFFFFFFDFC000000FDFFFFFFC0
:10085000FFFDFDFFFFFFFFFDFC000000FDFFFFFFB0
:10086000FFFDFDFFFFFFFFFDFC000000FDFFFFFFA0
:10087000FFFDFDFFFFFFFFFDFC000000FDFFFFFF90
:10088000FFFDFDFFFFFFFFFDFC000000FDFFFFFF80
:10089000FFFDFDFFFFFFFFFDFC000000FDFFFFFF70
:1008A000FFFDFDFFFFFFFFFDFC000000FDFFFFFF60
:1008B000FFFDFDFFFFFFFFFDFC000000FDFFFFFF50
:1008C000FFFDFDFFFFFFFFFDFC000000FDFFFFFF40
:1008D000FFFDFDFFFFFFFFFDFC000000FDFFFFFF30
:1008E000FFFDFDFFFFFFFFFDFC000000FDFFFFFF20
:1008F000FFFDFDFFFFFFFFFDFC000000FDFFFFFF10
:10090000FFFDFDFFFFFFFFFDFC000000FDFFFFFFFF
:10091000FFFDFDFFFFFFFFFDFC000000FDFFFFFFEF
:10092000FFFDFDFFFFFFFFFDFC000000FDFFFFFFDF
:10093000FFFDFDFFFFFFFFFDFC000000FDFFFFFFCF
:10094000FFFDFDFFFFFFFFFDFC000000FDFFFFFFBF
:10095000FFFDFDFFFFFFFFFDFC000000FDFFFFFFAF
:10096000FFFDFDFFFFFFFFFDFC004000FDFFFFFF5F
:10097000FFFDFDFFFFFFFFFDFC004000FDFFFFFF4F
:10098000FFFDFDFFFFFFFFFDFC008000FDFFFFFFFF
:10099000FFFDFDFFFFFFFFFDFC1FC000FDFFFFFF90
:1009A000FFFDFDFFFFFFFFFDFC000000FDFFFFFF5F
:1009B000FFFDFDFFFFFFFFFDFC0B8000FDFFFFFFC4
:1009C000FFFDFDFFFFFFFFFDFC124000FDFFFFFFED
:1009D000FFFDFDFFFFFFFFFDFC124000FDFFFFFFDD
:1009E000FFFDFDFFFFFFFFFDFC124000FDFFFFFFCD
:1009F000FFFDFDFFFFFFFFFDFC124000FDFFFFFFBD
:100A0000FFFDFDFFFFFFFFFDFC0F8000FDFFFFFF6F
:100A1000FFFDFDFFFFFFFFFDFC000000FDFFFFFFEE
:100A2000FFFDFDFFFFFFFFFDFC000000FDFFFFFFDE
:100A3000FFFDFDFFFFFFFFFDFC01C000FDFFFFFF0D
:100A4000FFFDFDFFFFFFFFFDFC060000FDFFFFFFB8
:100A5000FFFDFDFFFFFFFFFDFC180000FDFFFFFF96
:100A6000FFFDFDFFFFFFFFFDFC060000FDFFFFFF98
:100A7000FFFDFDFFFFFFFFFDFC01C000FDFFFFFFCD
:100A8000FFFDFDFFFFFFFFFDFC000000FDFFFFFF7E
:100A9000FFFDFDFFFFFFFFFDFC000000FDFFFFFF6E
:100AA000FFFDFDFFFFFFFFFDFC1FD800FDFFFFFF67
:100AB000FFFDFDFFFFFFFFFDFC000000FDFFFFFF4E
:100AC000FFFDFDFFFFFFFFFDFC0B8000FDFFFFFFB3
:100AD000FFFDFDFFFFFFFFFDFC124000FDFFFFFFDC
:100AE000FFFDFDFFFFFFFFFDFC124000FDFFFFFFCC
:100AF000FFFDFDFFFFFFFFFDFC124000FDFFFFFFBC
:100B0000FFFDFDFFFFFFFFFDFC124000FDFFFFFFAB
:100B1000FFFDFDFFFFFFFFFDFC0F8000FDFFFFFF5E
:100B2000FFFDFDFFFFFFFFFDFC000000FDFFFFFFDD
:100B3000FFFDFDFFFFFFFFFDFC088000FDFFFFFF45
:100B4000FFFDFDFFFFFFFFFDFC104000FDFFFFFF6D
:100B5000FFFDFDFFFFFFFFFDFC104000FDFFFFFF5D
:100B6000FFFDFDFFFFFFFFFDFC104000FDFFFFFF4D
:100B7000FFFDFDFFFFFFFFFDFC104000FDFFFFFF3D
:100B8000FFFDFDFFFFFFFFFDFC0F8000FDFFFFFFEE
:100B9000FFFDFDFFFFFFFFFDFC000000FDFFFFFF6D
:100BA000FFFDFDFFFFFFFFFDFC0C8000FDFFFFFFD1
:100BB000FFFDFDFFFFFFFFFDFC124000FDFFFFFFFB
:100BC000FFFDFDFFFFFFFFFDFC124000FDFFFFFFEB
:100BD000FFFDFDFFFFFFFFFDFC124000FDFFFFFFDB
:100BE000FFFDFDFFFFFFFFFDFC124000FDFFFFFFCB
:100BF000FFFDFDFFFFFFFFFDFC098000FDFFFFFF84
:100C0000FFFDFDFFFFFFFFFDFC000000FDFFFFFFFC
:100C1000FFFDFDFFFFFFFFFDFC1F8000FDFFFFFF4D
:100C2000FFFDFDFFFFFFFFFDFC004000FDFFFFFF9C
:100C3000FFFDFDFFFFFFFFFDFC004000FDFFFFFF8C
:100C4000FFFDFDFFFFFFFFFDFC004000FDFFFFFF7C
:100C5000FFFDFDFFFFFFFFFDFC004000FDFFFFFF6C
:100C6000FFFDFDFFFFFFFFFDFC1FC000FDFFFFFFBD
:100C7000FFFDFDFFFFFFFFFDFC000000FDFFFFFF8C
:100C8000FFFDFDFFFFFFFFFDFC1F8000FDFFFFFFDD
:100C9000FFFDFDFFFFFFFFFDFC0A4000FDFFFFFF22
:100CA000FFFDFDFFFFFFFFFDFC124000FDFFFFFF0A
:100CB000FFFDFDFFFFFFFFFDFC124000FDFFFFFFFA
:100CC000FFFDFDFFFFFFFFFDFC124000FDFFFFFFEA
:100CD000FFFDFDFFFFFFFFFDFC0C8000FDFFFFFFA0
:100CE000FFFDFDFFFFFFFFFDFC004000FDFFFFFFDC
:100CF000FFFDFDFFFFFFFFFDFC004000FDFFFFFFCC
:100D0000FFFDFDFFFFFFFFFDFC008000FDFFFFFF7B
:100D1000FFFDFDFFFFFFFFFDFC1FC000FDFFFFFF0C
:100D2000FFFDFDFFFFFFFFFDFC000800FDFFFFFFD3
:100D3000FFFDFDFFFFFFFFFDFC000800FDFFFFFFC3
:100D4000FFFDFDFFFFFFFFFDFC000800FDFFFFFFB3
:100D5000FFFDFDFFFFFFFFFDFC1FF800FDFFFFFF94
:100D6000FFFDFDFFFFFFFFFDFC000800FDFFFFFF93
:100D7000FFFDFDFFFFFFFFFDFC000800FDFFFFFF83
:100D8000FFFDFDFFFFFFFFFDFC000800FDFFFFFF73
:100D9000FFFDFDFFFFFFFFFDFC000000FDFFFFFF6B
:100DA000FFFDFDFFFFFFFFFDFC000000FDFFFFFF5B
:100DB000FFFDFDFFFFFFFFFDFC000000FDFFFFFF4B
:100DC000FFFDFDFFFFFFFFFDFC000000FDFFFFFF3B
:100DD000FFFDFDFFFFFFFFFDFC000000FDFFFFFF2B
:100DE000FFFDFDFFFFFFFFFDFC000000FDFFFFFF1B
:100DF000FFFDFDFFFFFFFFFDFC104000FDFFFFFFBB
:100E0000FFFDFDFFFFFFFFFDFC0FF000FDFFFFFFFB
:100E1000FFFDFDFFFFFFFFFDFC004000FDFFFFFFAA
:100E2000FFFDFDFFFFFFFFFDFC000000FDFFFFFFDA
:100E3000FFFDFDFFFFFFFFFDFC18C000FDFFFFFFF2
:100E4000FFFDFDFFFFFFFFFDFC050000FDFFFFFFB5
:100E5000FFFDFDFFFFFFFFFDFC020000FDFFFFFFA8
:100E6000FFFDFDFFFFFFFFFDFC050000FDFFFFFF95
:100E7000FFFDFDFFFFFFFFFDFC18C000FDFFFFFFB2
:100E8000FFFDFDFFFFFFFFFDFC000000FDFFFFFF7A
:100E9000FFFDFDFFFFFFFFFDFC0B8000FDFFFFFFDF
:100EA000FFFDFDFFFFFFFFFDFC124000FDFFFFFF08
:100EB000FFFDFDFFFFFFFFFDFC124000FDFFFFFFF8
:100EC000FFFDFDFFFFFFFFFDFC124000FDFFFFFFE8
:100ED000FFFDFDFFFFFFFFFDFC124000FDFFFFFFD8
:100EE000FFFDFDFFFFFFFFFDFC0F8000FDFFFFFF8B
:100EF000FFFDFDFFFFFFFFFDFC000000FDFFFFFF0A
:100F0000FFFDFDFFFFFFFFFDFC000000FDFFFFFFF9
:100F1000FFFDFDFFFFFFFFFDFC104000FDFFFFFF99
:100F2000FFFDFDFFFFFFFFFDFC0FF000FDFFFFFFDA
:100F3000FFFDFDFFFFFFFFFDFC004000FDFFFFFF89
:100F4000FFFDFDFFFFFFFFFDFC000000FDFFFFFFB9
:100F5000FFFDFDFFFFFFFFFDFC000000FDFFFFFFA9
:100F6000FFFDFDFFFFFFFFFDFC000000FDFFFFFF99
:100F7000FFFDFDFFFFFFFFFDFC000000FDFFFFFF89
:100F8000FFFDFDFFFFFFFFFDFC1F8000FDFFFFFFDA
:100F9000FFFDFDFFFFFFFFFDFC0A4000FDFFFFFF1F
:100FA000FFFDFDFFFFFFFFFDFC124000FDFFFFFF07
:100FB000FFFDFDFFFFFFFFFDFC124000FDFFFFFFF7
:100FC000FFFDFDFFFFFFFFFDFC124000FDFFFFFFE7
:100FD000FFFDFDFFFFFFFFFDFC0C8000FDFFFFFF9D
:100FE000FFFDFDFFFFFFFFFDFC000000FDFFFFFF19
:100FF000FFFDFC0000000001FC1EF000FDFFFFFFF4
:10100000FFFDFFFFFFFFFFFFFC010800FDFFFFFFEB
:10101000FFFDFFFFFFFFFFFFFC010800FDFFFFFFDB
:10102000FFFDFFFFFFFFFFFFFC010800FDFFFFFFCB
:10103000FFFDFFFFFFFFFFFFFC010800FDFFFFFFBB
:10104000FFFDFFFFFFFFFFFFFC010800FDFFFFFFAB
:10105000FFFDFFFFFFFFFFFFFC1FF800FDFFFFFF8D
:10106000FFFDFFFFFFFFFEFFFC000000FDFFFFFF95
:10107000FFFDFFFFFFFFFD7FFC000000FDFFFFFF06
:10108000FFFDFFFFFFFFFBBFFC0F8000FDFFFFFF29
:10109000FFFDFFFFFFFFF7DFFC104000FDFFFFFF3C
:1010A000FFFDFFFFFFFFEFEFFC104000FDFFFFFF24
:1010B000FFFDFFFFFFFFFFFFFC104000FDFFFFFFF4
:1010C000FFFDFFFFFFFFFFFFFC104000FDFFFFFFE4
:1010D000FFFDFFFFFFFFFFFFFC0F8000FDFFFFFF95
:1010E000FFFDFFFFFFFFFEFFFC100000FDFFFFFF05
:1010F000FFFDFFFFFFFFFEFFFC100000FDFFFFFFF5
:10110000FFFDFFFFFFFFFEFFFC100000FDFFFFFFE4
:10111000FFFDFFFFFFFFFEFFFC100000FC000000D2
:101120000001FFFFFFFFFEFFFC100000FFFFFFFFBD
:10113000FFFFFFFFFFFFFFFFFC1FF800FFFFFFFFA8
:10114000FFFFFFFFFFFFFFFFFC000000FFFFFFFFAF
:10115000FFFFFFFFFFFFFFFFFC000000FFFFFFFF9F
:10116000FFFFFFFFFFFFFFFFFC000000FFFFFFFF8F
:10117000FFFFFFFFFFFFFFFFFC000000FFFFFFFF7F
:10118000FFFFFFFFFFFFFFFFFC000000FFFFFFFF6F
:10119000FFFFFFFFFFFFFFFFFFFFFFFFFFFFFFFF5F
:1011A000FFFFFFFFD803FFFFFFFFFFFFFFFFFFE78A
:1011B000FFE1FFFFFFE7FFE1FFFFFFFFFDBFFDB323
:1011C000FC0FF1A3CD0FF0BFCDBFFDFFC3FF9DCF3F
:1011D000BEF70003BEF7BF67DF0FE7FF87FF7BEFB8
:1011E0007B9F847FF21F3DEF3DEFFE1F7FFF87FF58
:1011F0008F1F72EF79EF7C1F3BFF87FFFFFFFFFF21
:10120000FFFFFFDFFFC7FFFFFFFFFFFFFFFFFFFF46
:101210007FFEBFF9C7E3F00FFFFFFFFFFFFFFFFFF8
:10122000F00FC7E39FF97FFEFFFFFFFFFFBFF97FCE
:10123000FC7FFF0FFC7FF93FFFBFFFFFFFFFFF7F3A
:10124000FF7FFF7FF80FFF7FFF7FFF7FFFFFFFFF25
:10125000FFFF87FF67FFFFFFFFFFFFFFFEFFFEFFB0
:10126000FEFFFEFFFEFFFEFFFEFFFEFFFFFFFFFF94
:10127000FFFF9FFF9FFFFFFFFFFFFFFFFFFFFFFD40
:10128000FFE3FF1FFC7FE3FF9FFF7FFFF00F8FF166
:101290003FFC7FFE7FFE3FFC9FF9E007FFFFFFFF63
:1012A000FFFF0000FFF7FFF7FFF7FFFF7F837E3DA3
:1012B0007CFE7DFE79FE73FE67FD1FE3C0C3BEBDED
:1012C0007F7E7F7E7FFE7FFEBFFDC7F3F7FFF7FFC8
:1012D0000000F7F9F7E7F79FF67FF1FFE0FF8E3E9A
:1012E0003F9E7FDE7FDE7FDEBFB08F0FC0F3BE7D0F
:1012F0007FBE7FBE7FBE7FBD9E73E00FFFFCFFF20F
:10130000FFCEFE3EE1FE1FFEFFFEFFFEC0C39E3D80
:101310007F7E7F7E7F7E7F3DBEC3C1FFF007CE799B
:10132000BDFE7DFE7DFE7DFEBE7DCF03FFFFFFFF88
:10133000FFFFE7E7E7E7FFFFFFFFFFFFFFFFFFFF1D
:10134000FFFFC3F3B3F3FFFFFFFFFFFFFFFFFFFF4D
:10135000EFF7F7EFFBDFFDBFFE7FFFFFFFFFFDBFF6
:10136000FDBFFDBFFDBFFDBFFFFFFFFFFFFFFE7F16
:10137000FDBFFBDFF7EFEFF7FFFFFFFFFFC3FFBB93
:10138000FF7DFEFD91FDFFFDFFFBFFE7FE07B9F9C5
:1013900077FE701E77EEB01DCFF3F0F03FFFC1FF78
:1013A000FA0FFBF0FBE0FA1FC1FF3FFFC3FFBC8356
:1013B0007F3C7F7E7F7E7F7E7F7E0000E3E39FF920
:1013C0007FFE7FFE7FFEBFFDCFF3F00FF00FCFF368
:1013D000BFFD7FFE7FFE7FFE7FFE00007FFE7F7EE3
:1013E0007F7E7F7E7F7E7F7E7F7E0000FF7EFF7E12
:1013F000FF7EFF7EFF7EFF7EFF7E000100E39EF901
:101400003EFE7EFE7FFE3FFD8FF3F00F0000FF7F6C
:10141000FF7FFF7FFF7FFF7FFF7F0000FFFFFFFF5A
:10142000FFFF0000FFFFFFFFFFFFFFFFC000BFFF48
:101430007FFF7FFF7FFF7FFFBFFFC7FF3FFECFFD27
:10144000F3F3FCEFFF1FFF7FFEFF00007FFF7FFF36
:101450007FFF7FFF7FFF7FFF7FFF80000000FFF0A7
:10146000FC0F83FF87FFF81FFFE0000000009FFFD5
:10147000E7FFF8FFFF1FFFE7FFF90000F00F8FF114
:101480003FFC7FFE7FFE3FFC8FF1F00FFF83FF7D6F
:10149000FEFEFEFEFEFEFEFEFEFE0000700F87F169
:1014A0008FFCB7FEBFFE9FFCC7F1F80F0103FC7D68
:1014B000FEFEFEFEFEFEFEFEFEFE0000C1FFBCE3E1
:1014C0007EFC7F7E7F7E7F3EBFBDC7C3FFFEFFFEEB
:1014D000FFFEFFFE0000FFFEFFFEFFFEE0009FFF9D
:1014E0007FFF7FFF7FFF7FFF9FFFE000FFFCFFC3C9
:1014F000F83F07FF0FFFF07FFF87FFF8FFF8F007C7
:1015000007FFF803FF81007FF07FFF801FFCC7F318
:10151000F1CFFE3FFC3FF3C7CFF13FFCFFFCFFF3F1
:10152000FFCFFF3F003FFF0FFFE3FFFC7FFC7FF299
:101530007FC67F1E7C7E71FE47FE1FFEFFFFFFFF02
:10154000FFFF7FFE7FFE0000FFFFFFFFFF7FF8072A
:10155000077FF803FC1F037FFC07FF7F7F0C7FF2F0
:101560007FC67F1E7C7E71FE47FE1FFEFF9FFFDF52
:10157000FFE7FFF3FFF3FFE7FFDFFFBF7FFF7FFF23
:101580007FFF7FFF7FFF7FFF7FFF7FFFFFFFFFFF6B
:10159000FFEFFFF3FFFDFFFFFFFFFFFF7FFF003FB8
:1015A000BB9F7BDF7BDF7BDF379F873FE07F9F9F9A
:1015B0003FCF7FEF7FEF3FCF9F9F0000CE7FBFBF2A
:1015C0007FDF7FDF7FDF3F9F9F3FC0FF00009F9F48
:1015D0003FCF7FEF7FEF3FCF9F9FE07FD8FFBB3FA5
:1015E0007BDF7BDF7BDF7BDF9B3FC0FFFFFFFFFFFE
:1015F000FFEEFFEE0000FFEFFFFFFFFFC00FB79F02
:101600006FEF6FEF6FEF6FEFB7DF983F003FFFBFF8
:10161000FFDFFFDFFFDFFFDFFF3F0000FFFFFFFF18
:10162000FFFFFFFF001CFFFFFFFFFFFFFFFFFFFFAC
:10163000FFFF000C7FFF7FFFFFFFFFFF7FFF9FDFAC
:10164000CFBFF37FF8FFFDFFFBFF0000FFFFFFFFB1
:10165000FFFFFFFF0000FFFFFFFFFFFF003FFFDF77
:10166000FF9F007FFF9FFFDFFFBF001F003FFF9F27
:10167000FFDFFFDFFFDFFFDFFFBF001FE0FF9F3F58
:101680003F9F7FDF7FDF3F9F9F3FE0FFF03FE79F70
:10169000DFEFDFEFDFEFDFEFE79F000F000FE79FE8
:1016A000DFEFDFEFDFEFDFEFE79FF03FFFFFFFDF71
:1016B000FFDFFFBF001FFFFFFFFFFFFFFFFF873FB1
:1016C000339F7BDF7BDF3DDFCC3FFFFFFFFFFFFF73
:1016D000FFFF7FDF0003FFDFFFFFFFFF001F9FFF14
:1016E0003FFF7FFF7FFF7FFF3FFFC01FFF1FF8FF10
:1016F000C7FF1FFF1FFFC3FFF87FFF1FF03F0FFF54
:10170000C1FFFE1FE1FF1FFFE1FFFE1F7FDF9F1FE5
:10171000CE7FF0FFF1FFC67F9F1F3FDFFF9FFE7F61
:10172000F9FFE7FF87FF39FF7E7F7F9F7FDF7F1F06
:101730007E5F7CDF71DF67DF4FDF1FDFFFFFFFFFB3
:101740007FFD7FFD8103FEFFFEFFFFFFFFFFFFFF29
:10175000FFFFFFFF0000FFFFFFFFFFFFFFFFFEFF98
:10176000FEFF81037FFD7FFDFFFFFFFFFFFFFF7F88
:10177000FEFFFEFFFF7FFF7FFEFFFFFF11241FBE66
:10178000CFEFD0E1DEBFCDBF12E0A0E0B1E0EEE2EE
:10179000F0E400E00BBF02C007900D92AE37B10736
:1017A000D9F722E0AEE7B2E001C01D92AA3DB20730
:1017B000E1F70E9483150C9415200C940000089505
:1017C0000895089598E0C19887FF06C0C29A880FCF
:1017D000C19A9150C1F70895C298F9CFC498C5989D
:1017E0000E94E20BC49A0895C498C59A0E94E20B25
:1017F000C49A089580E10E94EE0B81E00E94F40BF0
:101800002FEF8FE392E0215080409040E1F700C03D
:1018100000000895B799FECF0895C6988FEF97E41A
:101820000197F1F700C00000C69A8FEF97E4019787
:10183000F1F700C000000E940A0C82E10E94EE0B4A
:101840000E940A0C81E00E94EE0B89EF0E94F40BCB
:1018500080E00E94F40B80E00E94F40B81E10E9482
:10186000EE0B81E00E94F40B84E40E94EE0B80E01A
:101870000E94F40B8FE00E94F40B85E40E94EE0BB3
:1018800089EF0E94F40B80E00E94F40B80E00E943C
:10189000F40B80E00E94F40B8CE30E94EE0B85E0D9
:1018A0000E94F40B81E20E94EE0B80E00E94F40B98
:1018B00080E80E94F40B88E10E94EE0B80E80E9411
:1018C000F40B8EE40E94EE0B80E00E94F40B8FE498
:1018D0000E94EE0B89EF0E94F40B80E00E94F40B53
:1018E0000C940A0C82E20E94EE0B87EF0E94F40B2C
:1018F00080E20E94EE0B0C940A0C0F931F93CF937F
:10190000DF938C0184E20E94EE0BD0E0C0E0F8018E
:10191000EC0FFD1F84910E94F40B2196C03A8FE0DA
:10192000D807A9F7DF91CF911F910F910C94720CFA
:1019300082E20E94EE0B8FEF0E94F40B80E20E9485
:10194000EE0B0C940A0C0F931F93CF93DF938C0133
:1019500084E20E94EE0BD0E0C0E0F801EC0FFD1F26
:1019600084910E94F40B2196C03A8FE0D807A9F722
:1019700086E20E94EE0BD0E0C0E0F801EC0FFD1F04
:1019800084910E94F40B2196C03A8FE0D807A9F702
:10199000DF91CF911F910F910C94720C4F925F9237
:1019A0006F927F928F929F92AF92BF92CF92DF926F
:1019B000EF92FF920F931F93CF93DF93FB013A01B6
:1019C00079016801EC0193E0D695C7959A95E1F706
:1019D00023E0169507952A95E1F7015011090C0FA0
:1019E0001D1F5B01512C6F3F710519F010F05F2E28
:1019F000BB24470181E0881A91088E0E9F1E412C5E
:101A00009FEF8916910419F010F0492C9924C6987B
:101A10008FEF97E40197F1F700C00000C69A8FEFAF
:101A200097E40197F1F700C000008CE30E94EE0BF1
:101A300080E80E94F40B84E40E94EE0B8C2F0E943D
:101A4000F40B802F0E94F40B85E40E94EE0B8A2D8C
:101A50000E94F40B852D0E94F40B882D0E94F40B3C
:101A6000842D0E94F40B8EE40E94EE0B8C2F0E94BA
:101A7000F40B8FE40E94EE0B8A2D0E94F40B852D4F
:101A80000E94F40B84E20E94EE0BCE9C8001CF9C5E
:101A9000100DDE9C100D112483E0169507958A9594
:101AA000E1F7D0E0C0E00C171D0791F4DF91CF9172
:101AB0001F910F91FF90EF90DF90CF90BF90AF906C
:101AC0009F908F907F906F905F904F900C94980CA8
:101AD000F301EC0FFD1F84910E94F40B2196E3CFDC
:101AE0000F931F93CF93DF9384E20E94EE0B0AEFD4
:101AF00010E0C0E1D0E08FEF0E94F40B2197D9F7FE
:101B000001501109B1F7DF91CF911F910F910C9402
:101B1000720C89B7826089BFEAE6F0E08081886054
:101B20008083789408958F938FB78F939F9380913C
:101B3000110291E08927809311029F918F918FBFAD
:101B40008F9118959C0190E080E08217930709F42B
:101B5000089542E04A95F1F700C00196F6CFEF9262
:101B6000FF920F931F93CF93DF93EC0180911102AB
:101B7000882399F060EA76E881E090E09E010D2EDE
:101B8000000C440B550B0E947616790110E000E022
:101B90000E151F054CF082B382BBDF91CF911F91D0
:101BA0000F91FF90EF900895979ACE010E94A20D99
:101BB0009798CE010E94A20D0F5F1F4FE9CF87EFCC
:101BC0008093A9021092AA028091A9028BBB86EF92
:101BD0008A95F1F783B380958F7709F448C08830F0
:101BE00079F140F48230E1F0843011F1813081F0FC
:101BF00080E00895803261F1803491F18031C1F745
:101C00008091AA0297E0899F802D11248B5F08950F
:101C10008091AA0297E0899F802D11248F5F0895FB
:101C20008091AA0297E0899F802D11248E5F0895EC
:101C30008091AA0297E0899F802D11248D5F0895DD
:101C40008091AA0297E0899F802D11248C5F0895CE
:101C50008091AA0297E0899F802D11248A5F0895C0
:101C60009091AA0287E0989F800D11240895909189
:101C7000A902990F91609093A9029091AA029F5F87
:101C80009093AA02953008F49FCF0895CF930E94B5
:101C9000DF0DC82F0E94DF0DC11107C08C2FCF911F
:101CA00008950E94DF0D1092A8028111FACFE091F1
:101CB000A80284E2E89FF0011124EB55FE4FEC0FDF
:101CC000F11D8081813129F482E08093A802C0E077
:101CD000E5CF823119F781E0F8CF1092900089B9F1
:101CE00059988AB18F768AB95298E5E9F0E08081F7
:101CF000877880838081866080830895882321F09F
:101D00008AB180698AB908958AB18F76FBCF1F9214
:101D10000F920FB60F9211240BB60F922F933F9391
:101D20004F935F936F937F938F939F93AF93BF93E3
:101D3000EF93FF934CB18091A702E82FF0E0EE5BA8
:101D4000FE4F40838F5F8093A702863090F48150CE
:101D5000990BFC01EE5BFE4F2081022E000C330B31
:101D600082569E4FFC0180818217130611F010925B
:101D7000A702E091A7024D3069F4EB3058F0F0E093
:101D8000EE5BFE4F10821092A7021092030180E0DA
:101D90000E947E0EFF91EF91BF91AF919F918F9125
:101DA0007F916F915F914F913F912F910F900BBE5B
:101DB0000F900FBE0F901F9018958F929F92AF9229
:101DC000BF92CF92DF92EF92FF920F931F93CF9328
:101DD000DF9300D000D000D0CDB7DEB7A9E8B1E0E6
:101DE0008D919C9124E6E22EF12CB7010E9462169F
:101DF0008B014C01E9E8F1E07183608360918B0114
:101E000070918C0180918D0190918E010E94CC1770
:101E100020E030E543EC57E469837A838B839C832D
:101E200069817A818B819C810E9458175B016C01CA
:101E3000C401990CAA0BBB0B89839A83AB83BC8327
:101E4000BC01CD010E94CC179B01AC01A982BA82D2
:101E5000CB82DC8269817A818B819C810E94CC1645
:101E60005B016C01AB01BC0140938F015093900169
:101E70006093910170939201C801110FAA0BBB0BE3
:101E800089839A83AB83BC83BC01CD010E94CC17AC
:101E90004B018C0120E030E040E752E4A982BA8295
:101EA000CB82DC8269817A818B819C810E94581768
:101EB0009B01AC0189829A820B831C8369817A81A0
:101EC0008B819C810E94CC16E62F372F462F572FEF
:101ED000BC014093A3025093A4026093A5027093A7
:101EE000A60203E111E025E048E0E9833A838B8311
:101EF0009C8369817A818B819C810E94C219809127
:101F0000930190919401B7010E9462168B015C01CC
:101F10007093940160939301609195017091960183
:101F200080919701909198010E94CC1720E030E5B4
:101F300043EC57E469837A838B839C8369817A813C
:101F40008B819C810E9458176B017C01C501BB0CE1
:101F5000AA0BBB0B89839A83AB83BC83BC01CD01E5
:101F60000E94CC179B01AC01C982DA82EB82FC8211
:101F700069817A818B819C810E94CC166B017C01E6
:101F8000AB01BC014093990150939A0160939B016E
:101F900070939C01C801110FAA0BBB0B89839A8314
:101FA000AB83BC83BC01CD010E94CC178B018E8317
:101FB0009D8320E030E040E752E4C982DA82EB8280
:101FC000FC8269817A818B819C810E9458179B01D8
:101FD000AC0109831A839E819B83AD81AC836981A7
:101FE0007A818B819C810E94CC16E62F372F462F59
:101FF000572FBC0140939F025093A0026093A1020F
:102000007093A20204E011E025E049E0E9833A83FD
:102010008B839C8369817A818B819C810E94C21908
:1020200026960FB6F894DEBF0FBECDBFDF91CF91DD
:102030001F910F91FF90EF90DF90CF90BF90AF90E6
:102040009F908F9008950F931F93CF93DF9300D0AD
:1020500000D0CDB7DEB71A8219821C821B8209E735
:1020600011E0F80180819181099668E170E00E9499
:102070006216918380834AE0BE016F5F7F4F0E94AA
:10208000EF198981F80186838A8187834AE0BE013E
:102090006F5F7F4F828193810E94EF198981F801E0
:1020A00081878A8182874AE0BE016F5F7F4F84818A
:1020B00095810E94EF198981F80184878A8185873B
:1020C00016860F900F900F900F90DF91CF911F9178
:1020D0000F9108952F923F924F925F926F927F924D
:1020E0008F929F92AF92BF92CF92DF92EF92FF9228
:1020F0000F931F93CF93DF93CDB7DEB728970FB61B
:10210000F894DEBF0FBECDBF2B013C0119014D83FA
:102110005E839701A80169835A828B837C826981DF
:102120007A818B819C810E94CB162BED3FE049E4A4
:1021300050E469837A838B839C8369817A818B8164
:102140009C810E94F21820E030E044E353E469836C
:102150007A838B839C8369817A818B819C810E94A5
:10216000581720E030E040E05FE369837A838B8397
:102170009C8369817A818B819C810E94F21869839A
:102180007A838B839C8369817A818B819C810E9475
:102190005F194B0188879F832BED3FE049E450E4B2
:1021A00049825A826B827C8269817A818B819C818F
:1021B0000E94F21820E030E044E353E469837A831C
:1021C0008B839C8369817A818B819C810E945817C3
:1021D00069837A838B839C8369817A818B819C81DB
:1021E0000E9453173B01582E492E2BED3FE049E446
:1021F00050E4E982FA820B831C8369817A818B81A6
:102200009C810E94F21820E030E044E353E46983AB
:102210007A838B839C8369817A818B819C810E94E4
:10222000581769837A838B839C8369817A818B8138
:102230009C810E9453177B018C019501A601298284
:102240003A828D818B838E818C8369817A818B81A7
:102250009C810E94CB162BED3FE049E450E469835A
:102260007A838B839C8369817A818B819C810E9494
:10227000F21820E030E044E353E469837A838B83EF
:102280009C8369817A818B819C810E94581720E010
:1022900030E040E05FE369837A838B839C836981CC
:1022A0007A818B819C810E94F21869837A838B8367
:1022B0009C8369817A818B819C810E945F195B017B
:1022C0006C019701A80169827A825B824C826981E4
:1022D0007A818B819C810E94F2187B018C0195018F
:1022E000A601A982BA82CB82DC8269817A818B8144
:1022F0009C810E94F2189B01AC01E982FA820B8357
:102300001C8369817A818B819C810E94F2187B01F8
:102310008C01940148855F8189829A8288858B83AC
:102320008F818C8369817A818B819C810E94F218D4
:102330009B01AC01E982FA820B831C8369817A815B
:102340008B819C810E94CC1669837A838B839C83CA
:1023500069817A818B819C810E946D1969837A835E
:102360008B839C8369817A818B819C810E94381741
:1023700020E038E147E456E469837A838B839C83C9
:1023800069817A818B819C810E94F21869837A83AA
:102390008B839C8369817A818B819C8128960FB67F
:1023A000F894DEBF0FBECDBFDF91CF911F910F918B
:1023B000FF90EF90DF90CF90BF90AF909F908F9065
:1023C0007F906F905F904F903F902F900895AF92C5
:1023D000BF92CF92DF92EF92FF920F931F93CF9312
:1023E000DF93EC01B12C99E0A92EE42EF12CC62E3E
:1023F000D12C8E010B0D111DF801808181110BC0B4
:10240000DF91CF911F910F91FF90EF90DF90CF90D0
:10241000BF90AF9008950E940D0CF801408140528A
:10242000550B84E0440F551F8A95E1F744575E4EE3
:10243000B701BA9C600D711D112400E110E028E085
:1024400030E0C6010E94CE0C0E94FA0BB394D1CFAB
:10245000CF93C82F8AB180698AB985EF91E0209126
:102460000301222341F0EFEFF7E43197F1F700C0C9
:1024700000000197A1F781E0809303018DE991E0CD
:102480009F938F938DE791E09F938F938BE791E0DC
:102490009F938F9389E791E09F938F9385E991E0D4
:1024A0009F938F9383E991E09F938F938BE891E0C3
:1024B0009F938F9389E891E09F938F9389E392E0B4
:1024C0009F938F9382E491E09F938F930E94141ABD
:1024D0008DB79EB744960FB6F8949EBF0FBE8DBFC2
:1024E00080919D01813449F048E26BE48FE291E0F4
:1024F0000E94E71180E0CF910895CC2321F00E9443
:10250000DD0E81E0F8CF0E942310FBCFCF93DF9345
:10251000CDB7DEB72C970FB6F894DEBF0FBECDBF98
:1025200086E0EAE6F2E0DE01179601900D928A95C8
:10253000E1F786E0E0E7F2E0DE01119601900D920E
:102540008A95E1F781E00E9428128823E1F08FE567
:1025500090E00E94AF0D48E26BE4CE0107960E9426
:10256000E71145E56BE483E191E00E94E71144E166
:1025700067E1CE0101960E94E71141E467E184E042
:1025800091E00E94E7112C960FB6F894DEBF0FBEC3
:10259000CDBFDF91CF91089580E00E942812811174
:1025A00006C048E26BE48FE291E00C94E7118FE5FE
:1025B00090E00E94AF0D48E26BE48FE791E0F5CF29
:1025C0009C01AC0190E080E0FA014F5F5F4F7081A9
:1025D000711106C06083280F391FF9011182089517
:1025E00001968731910581F708959C01E0917E0263
:1025F000E80FF92FF11D608380917E02280F311DB5
:10260000F901118280917E028F5F80937E0208958E
:102610001092980080939900EBE9F0E080818D7F23
:102620008083EAE9F0E080818869808380818B7F04
:102630008083EDE9F0E08081877880838081866007
:102640008083089590919B0095FFFCCF80939C0020
:10265000089581E10E9422138DE00E9422138AE0F6
:102660000C942213AF92BF92CF92DF92EF92FF921F
:102670000F931F93CF93DF93CDB7DEB76E970FB64F
:10268000F894DEBF0FBECDBF8FE590E00E94AF0D86
:102690001E8A1D8A1F86188A198A1A8A1C8A1B8A12
:1026A0001B861C861D861E8680E290E09A838983A5
:1026B000FE01339688E0DF011D928A95E9F781E0FB
:1026C0000E9428120E942913BFEFEFE7F6E1B150F4
:1026D000E040F040E1F700C0000089EE93E0209177
:1026E0000101222321F0209102012111D2C081E0B9
:1026F0008093010180930201CE010F969F938F93E7
:1027000006969F938F9306E712E01F930F9380E93D
:1027100092E09F938F930E94141ACE010B969F9381
:102720008F9308969F938F931F930F9381E892E066
:102730009F938F930E94141A6B857C858D859E854F
:102740000E94CC1720E030E543EC57E46F8B788F84
:10275000898F9A8F6F89788D898D9A8D0E945817ED
:102760007B018C018B899C895C01990FCC08DD0869
:10277000AF8AB88EC98EDA8EC601B5010E94CC1719
:102780009B01AC01EF8AF88E098F1A8F6F89788DC3
:10279000898D9A8D0E94CC167B018C016F8578897A
:1027A00089899A890E94CC1720E030E543EC57E4F0
:1027B0006F8B788F898F9A8F6F89788D898D9A8D9D
:1027C0000E9458175B016C018D899E899C01990FAD
:1027D000440B550B2F8B388F498F5A8FCA01B90183
:1027E0000E94CC179B01AC01AF8AB88EC98EDA8EDD
:1027F0006F89788D898D9A8D0E94CC1620919F02C9
:102800003091A0024091A1025091A202A090A30297
:10281000B090A402C090A502D090A602AB8EBC8E50
:10282000CD8EDE8E570168016F8B788F898F9A8FDE
:10283000EF88F88C098D1A8D6B8D7C8D8D8D9E8D1A
:102840000E946A108E010F5F1F4F23E047E06F8BDD
:10285000788F898F9A8F6F89788D898D9A8D0E9454
:10286000C2198BE688878DE689871A8648E26BE471
:10287000C8010E94E7118BE490E00E94AF0D82E353
:1028800090E00E94AF0D0FB6F894DEBF0FBECDBF33
:102890000FC0AFEFB7E41197F1F700C00000019748
:1028A00009F01DCF48E26BE482E291E00E94E7115B
:1028B0006E960FB6F894DEBF0FBECDBFDF91CF91FD
:1028C0001F910F91FF90EF90DF90CF90BF90AF904E
:1028D0000895CF93DF93EC018991811108C08DE0B9
:1028E0000E9422138AE0DF91CF910C9422130E9460
:1028F0002213F2CF8AB180698AB985EF91E02091E5
:102900000301222341F0EFEFF7E43197F1F700C024
:1029100000000197A1F781E0809303018DE991E028
:102920009F938F938DE791E09F938F938BE791E037
:102930009F938F9389E791E09F938F9385E991E02F
:102940009F938F9383E991E09F938F938BE891E01E
:102950009F938F9389E891E09F938F9389E392E00F
:102960009F938F9382E491E09F938F930E94141A18
:102970008DB79EB744960FB6F8949EBF0FBE8DBF1D
:1029800080919D018134C1F40E94DD0E82E10E949C
:10299000221383E191E00E9469149FEFEFE3F2E0DC
:1029A0009150E040F040E1F700C0000083E10E9458
:1029B000221384E091E002C08FE291E00C9469144C
:1029C0008091AC028231F9F0833181F1813181F55E
:1029D0000E947A14ECEAF2E0119282E0E33CF807FC
:1029E000D9F7089580579D4F3181FC0130832F5FC7
:1029F000822F90E0FC01E455FD4F30813111F2CF80
:102A000010920201E7CF20E0F3CF8F579D4F318125
:102A1000FC0130832F5F822F90E0FC01E455FD4FD5
:102A200030813111F2CF10920101D4CF20E0F3CFE9
:102A30008FE590E00E94AF0D85E590E00E94AF0D1C
:102A400048E26BE48CEA92E00E94E711C3CF1F9248
:102A50000F920FB60F9211240BB60F922F933F9344
:102A60004F935F936F937F938F939F93AF93BF9396
:102A7000EF93FF9360919C006D3031F06A30B9F0B4
:102A80008CEA92E00E94E012FF91EF91BF91AF912A
:102A90009F918F917F916F915F914F913F912F9176
:102AA0000F900BBE0F900FBE0F901F9018950E94B5
:102AB000E014EACF8FEF8ABB8F9A8998919A8FE7BB
:102AC00087BB14BA08950E94890D0E945A158FEF92
:102AD00085BB8FE20E9408138FE20E946D0E8FE586
:102AE00090E00E94AF0D0E940D0C8CEE91E00E94D0
:102AF000A30C0E94FA0B8BE490E00E94AF0D8FE3D1
:102B000090E00C94AF0D0E94631594E2D92E2AED4B
:102B1000E22E22E0F22ED9E00E94DF0D8823E1F3BD
:102B20000091A80210E00E94460ED09EF001D19EB6
:102B3000F00D1124EB55FE4FE80FF11DC081CC23A1
:102B400059F30E940D0CCD3031F1C03209F48DC023
:102B5000C83009F095C08091800281508093800236
:102B600080917E02815080937E020E940D0C6091C4
:102B700080026D9FB00111246C5E7F4F00E110E078
:102B800028E030E04CE851E187E190E00E94CE0C73
:102B90000E94FA0BC1CF8091C302843209F049C070
:102BA0008091C4028736D9F48091C502803761F4E0
:102BB0008091C602833741F48CEE91E00E94A30C11
:102BC0000E94FA0B0E948612E3ECF2E01192EE16DC
:102BD000FF06E1F71092800210927E029DCF8436AC
:102BE00089F48091C502893679F78091C6028337CE
:102BF00059F78CEE91E00E94A30C0E94FA0B0E9400
:102C00003213E2CF843701F78091C5028936E1F6AD
:102C10008091C6028D36C1F68091C7028536A1F635
:102C20008CEE91E00E94A30C0E94FA0B0E94CC1241
:102C3000CBCF83EC92E00E94691485E590E00E947E
:102C4000AF0D8FE590E00E94AF0D2FEF8FE793E47B
:102C5000215080409040E1F700C000008CEE91E0F0
:102C60000E94A30C0E94FA0BAFCF60E283EC92E0CB
:102C70000E94F512809180028F5F809380024CCF7A
:102C80006C2F83EC92E00E94F5128C2F8052990BEE
:102C9000AC0184E0440F551F8A95E1F744575E4E1E
:102CA000609180026D9FB00111246C5E7F4F00E146
:102CB00010E028E030E087E190E00E94CE0C0E9416
:102CC000FA0BD8CF97FB072E16F4009407D077FDA8
:102CD00009D00E94951607FC05D03EF49095819589
:102CE0009F4F0895709561957F4F0895052E97FB2E
:102CF0001EF400940E948D1657FD07D00E94A9165D
:102D000007FC03D04EF40C948D16509540953095E9
:102D100021953F4F4F4F5F4F089590958095709547
:102D200061957F4F8F4F9F4F0895AA1BBB1B51E1A9
:102D300007C0AA1FBB1FA617B70710F0A61BB70B2B
:102D4000881F991F5A95A9F780959095BC01CD01D0
:102D50000895A1E21A2EAA1BBB1BFD010DC0AA1FDC
:102D6000BB1FEE1FFF1FA217B307E407F50720F0F4
:102D7000A21BB30BE40BF50B661F771F881F991F6F
:102D80001A9469F760957095809590959B01AC01B8
:102D9000BD01CF0108955058BB27AA270E94E31612
:102DA0000C94A4180E946B1838F00E94721820F03E
:102DB00039F49F3F19F426F40C942D180EF4E09585
:102DC000E7FB0C942718E92F0E94C91858F3BA178B
:102DD000620773078407950720F079F4A6F50C9431
:102DE000EB180EF4E0950B2EBA2FA02D0B01B901B4
:102DF00090010C01CA01A0011124FF27591B99F071
:102E0000593F50F4503E68F11A16F040A22F232F7C
:102E1000342F4427585FF3CF469537952795A795CC
:102E2000F0405395C9F77EF41F16BA0B620B730B73
:102E3000840BBAF09150A1F0FF0FBB1F661F771FE4
:102E4000881FC2F70EC0BA0F621F731F841F48F499
:102E5000879577956795B795F7959E3F08F0B0CF22
:102E60009395880F08F09927EE0F97958795089509
:102E70009F939F77EEE389379E0728F4ECE8F0E014
:102E80000E9457180CC00E9407189058A2EA2AED19
:102E90003FE049EC5FE30E94E3160E94A4180F9004
:102EA00007FC905808950E947B18E3950C94B51880
:102EB0000E946C170C94A4180E94721858F00E947B
:102EC0006B1840F029F45F3F29F00C94271851113A
:102ED0000C94EC180C942D180E94C91868F39923CF
:102EE000B1F3552391F3951B550BBB27AA27621706
:102EF0007307840738F09F5F5F4F220F331F441F13
:102F0000AA1FA9F335D00E2E3AF0E0E832D0915046
:102F10005040E695001CCAF72BD0FE2F29D0660F33
:102F2000771F881FBB1F261737074807AB07B0E876
:102F300009F0BB0B802DBF01FF2793585F4F3AF07C
:102F40009E3F510578F00C9427180C94EC185F3FC5
:102F5000E4F3983ED4F3869577956795B795F79502
:102F60009F5FC9F7880F911D9695879597F90895EA
:102F7000E1E0660F771F881FBB1F62177307840786
:102F8000BA0720F0621B730B840BBA0BEE1F88F795
:102F9000E0950895E89409C097FB3EF490958095DC
:102FA000709561957F4F8F4F9F4F9923A9F0F92F0F
:102FB00096E9BB279395F695879577956795B7958D
:102FC000F111F8CFFAF4BB0F11F460FF1BC06F5F73
:102FD0007F4F8F4F9F4F16C0882311F096E911C085
:102FE000772321F09EE8872F762F05C0662371F0A6
:102FF00096E8862F70E060E02AF09A95660F771FBA
:10300000881FDAF7880F9695879597F90895DF93CB
:10301000CF931F930F938B01EC01E0EAF0E00E9445
:1030200030180E94A4189801AE018B01EC0160E0F9
:1030300070E080E89FE30E94CB160E946D19980112
:10304000AE010F911F91CF91DF910C94051997F963
:103050009F6780E870E060E008959FEF80EC08953E
:10306000DF93CF931F930F93FF92EF92DF927B0139
:103070008C01689406C0DA2EEF010E940519FE014A
:10308000E894A5912591359145915591A6F3EF01CD
:103090000E94E316FE019701A801DA9469F7DF9018
:1030A000EF90FF900F911F91CF91DF9108959F9323
:1030B0008F937F936F93FF93EF939B01AC010E94DB
:1030C000F218EF91FF910E9430182F913F914F918C
:1030D0005F910C94F21800240A941616170618062D
:1030E0000906089500240A9412161306140605060C
:1030F00008950C942D180E94D118D8F3E894E0E0BC
:10310000BB279F57F0F02AED3FE049EC06C0EE0FD9
:10311000BB0F661F771F881F28F0B23A620773073C
:10312000840728F0B25A620B730B840BE3959A95CF
:1031300072F7803830F49A95BB0F661F771F881F8F
:10314000D2F790480C94AF19092E0394000C11F497
:10315000882352F0BB0F40F4BF2B11F460FF04C072
:103160006F5F7F4F8F4F9F4F0895EF93E0FF07C032
:10317000A2EA2AED3FE049EC5FEB0E94E3160E94D1
:10318000A4180F90039401FC9058E8ECF0E00C9424
:10319000571857FD9058440F551F59F05F3F71F075
:1031A0004795880F97FB991F61F09F3F79F08795AE
:1031B0000895121613061406551FF2CF4695F1DF37
:1031C00008C0161617061806991FF1CF86957105C7
:1031D000610508940895E894BB2766277727CB01FB
:1031E00097F908950E9405190C94A4180E946B1871
:1031F00038F00E94721820F0952311F00C942718D3
:103200000C942D1811240C94EC180E94C91870F31A
:10321000959FC1F3950F50E0551F629FF001729F7B
:10322000BB27F00DB11D639FAA27F00DB11DAA1F8A
:10323000649F6627B00DA11D661F829F2227B00DD7
:10324000A11D621F739FB00DA11D621F839FA00D62
:10325000611D221F749F3327A00D611D231F849FB2
:10326000600D211D822F762F6A2F11249F57504009
:103270009AF0F1F088234AF0EE0FFF1FBB1F661F84
:10328000771F881F91505040A9F79E3F510580F04D
:103290000C9427180C94EC185F3FE4F3983ED4F399
:1032A000869577956795B795F795E7959F5FC1F7F1
:1032B000FE2B880F911D9695879597F908959F93FA
:1032C0000E947B180F9007FCEE5F0C94B51819F460
:1032D00016F40C942D180C94AD190E94D118B8F363
:1032E0009923C9F3B6F39F57550B87FF0E94BB196B
:1032F0000024A0E640EA900180585695979528F45E
:10330000805C660F771F881F20F026173707480755
:1033100030F4621B730B840B202931294A2BA695AC
:1033200017940794202531254A2758F7660F771FF1
:10333000881F20F026173707480730F4620B730BFD
:10334000840B200D311D411DA09581F7B901842FFB
:103350009158880F9695879508959F3F31F0915029
:1033600020F4879577956795B795880F911D969569
:10337000879597F9089591505040660F771F881FE1
:10338000D2F70895EF920F931F93CF93DF9300D05E
:1033900000D00F92CDB7DEB7322F0D8354E047FD3A
:1033A00054E1242F27FD2195E52E032F4D81512F28
:1033B00069837A838B839C8369817A818B819C81E9
:1033C0000E94211D8D81912F0F900F900F900F90D3
:1033D0000F90DF91CF911F910F91EF900895BB2730
:1033E0004A3031F4992322F4BDE2909581959F4FA4
:1033F0000C94FB19BB27FB015527AA27880F991F9F
:10340000AA1FA41710F0A41B83955051B9F7A05D13
:10341000AA3308F0A95DA193009779F7B111B19390
:103420001192CB010C94AC1FCF93DF93CDB7DEB7D5
:103430002E970FB6F894DEBF0FBECDBF85E08C830C
:103440008B899C899A838983AE01495E5F4F6D8920
:103450007E89CE0101960E94E41B2E960FB6F89449
:10346000DEBF0FBECDBFDF91CF910895FC01CA0131
:10347000DB0120FD08C023FD05C022FF02C0B3838D
:10348000A283918380830895CF92DF92EF92FF927F
:10349000CF93DF9300D000D0CDB7DEB76B017C01B6
:1034A00083E044FD10C084E046FD0DC0D601F70165
:1034B000AA0FBB1FEE1FFF1F1094D1F7CA0EDB1E11
:1034C000EE1EFF1E81E0CC0CDD1CEE1CFF1C8150AB
:1034D000D1F7D701C601820F911DA11DB11DBC01FD
:1034E000CD010F900F900F900F90DF91CF91FF9033
:1034F000EF90DF90CF9008950F931F93CF93DF93BA
:103500008C01C8010E94BC1FEC0197FD08C00E94FD
:10351000981F892BB1F7B801CE010E94FA1FCE0186
:10352000DF91CF911F910F910895AF92BF92CF92EB
:10353000DF92EF92FF920F931F93CF93DF938C0153
:10354000C62F5A01F22E0E94BC1FFC019927EB32B4
:1035500021F08D97B1F46894F7F8C15061F480E0E0
:10356000DF91CF911F910F91FF90EF90DF90CF905F
:10357000BF90AF900895C8010E94BC1FFC0197FD49
:10358000EECFDF2DDD7F8F2D807309F5E033F9F469
:10359000EE24EA94EC0EC13091F0C8010E94BC1FE9
:1035A000FC0197FD0CC08F7D883569F4D264C25050
:1035B00031F0C8010E94BC1FFC0197FF08C0C12C5C
:1035C000D12C76011CC0F6FE2CC0D260CE2DC12CB1
:1035D000D12C760120ED2E0F283030F1D4FD09C01A
:1035E0002A3010F1D6FF05C02F7D8FEE820F863076
:1035F000D0F0B801CF010E94FA1FD1FFB0CFD7FFA2
:1036000008C0F094E094D094C094C11CD11CE11C7B
:10361000F11C2D2FB701A601C5010E94361A81E0C9
:103620009FCFD261D3CF27504D2FC701B6010E9443
:10363000441A6B017C01D260C15009F3C8010E9499
:10364000BC1FFC0197FFC6CFD8CF8F929F92AF923D
:10365000BF92CF92DF92EF92FF920F931F93CF937F
:10366000DF93CDB7DEB7A0970FB6F894DEBF0FBEDD
:10367000CDBF6C01962E7A01CE0101965C0180E2ED
:10368000F50111928A95E9F7F6018380890150E0EE
:1036900040E0B0E020E0A0E061E070E0F80183FCF1
:1036A000959183FE9191892F8F01911116C010E0A1
:1036B00000E0C801A0960FB6F894DEBF0FBECDBFE4
:1036C000DF91CF911F910F91FF90EF90DF90CF90FE
:1036D000BF90AF909F908F9008959E3519F441153B
:1036E000510531F1A4171506ECF49D3549F19D32D1
:1036F000C9F4222309F1E82FE695E695E695EA0D4F
:10370000FB2DF11D982F97709B0101C0220F9A95F8
:10371000EAF79081292B20838B1781F08B1730F4E7
:103720008F5FE9CF2111E7CFB92FE5CF8150E3CFEC
:10373000A1E04F5F5F4FB2CF21E0FBCF20E0F9CF98
:10374000222319F08E8180628E83AA2361F0F50115
:103750009E012F5D3F4F8081DF01319680958C93D4
:10376000E217F307C1F788248394C6010E94BC1FA7
:1037700097FD16C0E82FE695E695E695EA0DFB2D38
:10378000F11D208130E0AC014770552702C035950E
:1037900027954A95E2F720FD06C0B6010E94FA1F60
:1037A000882059F084CFE114F10419F0F7018193D6
:1037B0007F019A94812C9110D8CFE114F10409F47F
:1037C00078CFF701108275CF6F927F928F929F9280
:1037D000AF92BF92CF92DF92EF92FF920F931F931F
:1037E000CF93DF9300D000D000D0CDB7DEB75C011F
:1037F0006D837E83742E652EDC0117961C921E92BB
:103800001697C12CD5011396FC90ED81FE81F3FC37
:103810008591F3FE8191182FFE83ED838823F9F0C3
:1038200090E00E94981F892B21F0C5010E947C1A0C
:10383000E9CF153251F4ED81FE81F3FC1591F3FED1
:103840001191FE83ED83153269F4C5010E94BC1FFE
:1038500097FDA2C01817B1F2B5010E94FA1F8C2D76
:1038600090E09EC000E01A3249F4ED81FE81F3FC45
:103870001591F3FE1191FE83ED8301E0D12C20ED33
:10388000210F2A3060F101FF42C0DD2041F31836DC
:1038900009F440C01C3609F449C0112301F3612F1B
:1038A00070E086EE90E00E94A11F892BC1F2F12CFE
:1038B000E12C00FD06C0E72DF62DE190F1907E2E63
:1038C0006F2E1E3609F03CC0D50116964D915C91C5
:1038D00070E060E0202FC7010E94361A93CF02608B
:1038E0008D2D90E0B0E0A0E089839A83AB83BC8308
:1038F00040E2BC01CD010E94441AD62EED81FE812A
:10390000F3FC1591F3FE1191FE83ED83B8CFDD2416
:10391000DA94BDCFED81FE81F3FC1591F3FE119198
:10392000FE83ED83183609F0B8CF08600460ED819E
:10393000FE81F3FC1591F3FE1191FE83ED83ADCF73
:103940001336B1F401FD02C0DD24D394C5010E94F9
:10395000BC1F97FD21C0E114F10419F0F701819318
:103960007F01DA94D110F2CF00FD4CCFC3944ACF3F
:103970001B3559F52D813E81A7016D2DC5010E9492
:10398000251B8D839E83ED81FE81EF2B69F7F50169
:103990008381807309F463CF8FEF9FEFC1105FCFF6
:1039A00026960FB6F894DEBF0FBECDBFDF91CF9144
:1039B0001F910F91FF90EF90DF90CF90BF90AF904D
:1039C0009F908F907F906F900895C5010E947C1A00
:1039D00097FDE2CF1F3699F130F4143641F01936D5
:1039E00039F0006405C01337A9F01537D1F700622C
:1039F000202FA7016D2DC5010E94951A8111B4CF0A
:103A0000C6CFE114F10419F0F70181927F01DA9435
:103A1000DD2071F0C5010E94BC1F4C0197FD08C05C
:103A20000E94981F892B69F3B501C4010E94FA1FF7
:103A3000E114F10409F498CFD7011C9295CF0061ED
:103A4000D7CF6F927F929F92AF92BF92CF92DF9229
:103A5000EF92FF920F931F93CF93DF93CDB7DEB713
:103A60002D970FB6F894DEBF0FBECDBF6A01122F9F
:103A7000B02EFBE36F2E601608F40BE3FF24F394E3
:103A8000F00E0F2D27E0AE014F5F5F4F6A877B87F7
:103A90008C879D876A857B858C859D850E94C01E4D
:103AA000AC01A9808A2D89703DE2813039F03BE27A
:103AB000E1FC04C03E2D3170E0FC30E20E2D0071BF
:103AC000EA2DE870A3FE59C083E0311184E081172C
:103AD000A8F5181B002309F43FC0332319F0F601A1
:103AE00031936F01F6013396E2FE3BC08EE4D601BE
:103AF0008C9391E411969C93119712968C93812F3D
:103B00009E2F2F2F30E2811131C0E10FF11D108265
:103B10008EEF9FEF2D960FB6F894DEBF0FBECDBF90
:103B2000DF91CF911F910F91FF90EF90DF90CF9099
:103B3000BF90AF909F907F906F90089510E0CACF94
:103B4000E92FF22F419381509E2F2F2F8111F8CF13
:103B5000C10ED11C10E0C1CF812F9C2D2D2D40E234
:103B6000F5CF8EE6D6018C9391E6C4CFA92FB22F64
:103B70003D9381509A2F2B2FC6CF2A2D2470A2FE61
:103B800047C083E0311184E0811710F4E12FE81B76
:103B9000002349F1332319F0D6013D936D01C6018D
:103BA0000396E2FE25C029E4D6012C932EE411965B
:103BB0002C93119726E412962C932E2F382F492FF1
:103BC00050E221111EC0E80FF92FF11DA0CFA92F3F
:103BD000B22F4D9381509A2F2B2F8111F8CFCE0EFB
:103BE000D11CE0E0D7CF8E2F9C2D2D2D40E2F5CFBC
:103BF00029E6D6012C932EE611962C93119726E6F2
:103C0000DACFA32FB42F5D9321503A2F4B2FD9CF6A
:103C1000BA0157FF02C070E060E0E1E0F0E031116E
:103C200002C0F0E0E0E0CB010196E80FF91F8B2D18
:103C300090E0DC011196B11002C0B0E0A0E0EA0F04
:103C4000FB1F1E171F0619F014F0212F2E1B011148
:103C500094C0D601E22FF0E2E3FE51C0332329F0F5
:103C6000F60131936F01011108C0F601322FA0E374
:103C700031114BC0C20ED11C20E00F2D040F3A8130
:103C8000FA2DF071BF2EA4FE03C0313309F40150A8
:103C90001016F4F5093008F008E0DB017A01E01AAB
:103CA000F10800271127081B190BEEE29E2E4A1778
:103CB0005B0784F1EA16FB066CF5FA01EA1BFB0BC5
:103CC00066246394712C6C0E7D1EE60DF71DA18099
:103CD00011973601EFEF6E1A7E0AA017B107ECF0CC
:103CE000F601A082AF3FBA0731F43601E2E06E0E72
:103CF000711CF60191826301DACFFD93E150E1116D
:103D0000FCCFC20ED11C20E0A9CFA1933150B0CF7F
:103D100001E0C3CFE0E3AE2EDBCF80959095861710
:103D200097070CF5861B970B019661507109860F5A
:103D3000971F4817590741F4363320F4353321F4DF
:103D4000B11002C081E3A82ED601AC92822F962D2D
:103D5000372D40E281110AC0F301E20FF11D1082FC
:103D600090E080E0D7CE90E080E0DFCFA92FB32FA6
:103D70004D9381509A2F3B2FEDCF311171CF7DCFD5
:103D8000283008F027E03327DA01990F311D87FD2D
:103D9000916000966105710539F432602E5F3D93A4
:103DA00030E32A95E1F708959F3F30F080387105A0
:103DB000610509F03C5F3C5F3D93913008F08068FD
:103DC000911DDF93CF931F930F93FF92EF92192FC3
:103DD000987F9695E92F96959695E90FFF27E45BD6
:103DE000FE4F99273327EE24FF24A701E701059012
:103DF0000894079428F4360FE71EF81E491F511D3A
:103E0000660F771F881F991F0694A1F705900794E6
:103E100028F4E70EF81E491F561FC11D770F881F93
:103E2000991F661F0694A1F70590079428F4F80ED1
:103E3000491F561FC71FD11D880F991F661F771F67
:103E40000694A1F70590079420F4490F561FC71F49
:103E5000D81F990F661F771F881F0694A9F78491B2
:103E60001095177041F0D695C79557954795F794DB
:103E7000E7941A95C1F7E2EFF0E068941590159178
:103E800035916591959105907FE27395E118F10A5E
:103E9000430B560BC90BD009C0F7E10CF11E431FB1
:103EA000561FC91FD01D7EF4703311F48A95E6CFDA
:103EB000E894015030F0080F0AF40027021708F4C4
:103EC000202F2395022F7A3328F079E37D932A95CA
:103ED000E9F710C07D932A9589F606949795679522
:103EE000379517951794E118F10A430B560BC90B38
:103EF000D00998F023957E9173957A3308F070E39A
:103F00007C932013B8F77E9170617D9330F0839598
:103F100071E37D9370E32A95E1F71124EF90FF9010
:103F20000F911F91CF91DF91992787FD909508956B
:103F300091110C941220803219F089508550C8F7E5
:103F40000895FC010590061621F00020D9F7C00164
:103F500008953197CF010895DC01FC01672F71911D
:103F60007723E1F7329704C07C916D93708362915F
:103F7000AE17BF07C8F30895CF93DF93EC018B8191
:103F800080FF33C086FF0CC08F7B8B838E819F8127
:103F900001969F838E838A8190E0DF91CF9108956F
:103FA00082FF15C0E881F9819081292F092E000C2C
:103FB000330B80629923C1F03196F983E8838E81B7
:103FC0009F8101969F838E83C9019927E6CFEA8559
:103FD000FB85CE0109959C0197FFF1CF8B812F3F87
:103FE0003F4F31F090E2892B8B838FEF9FEFD5CF3E
:103FF00090E1F9CFFB01238120FF11C026FD0FC006
:104000008F3F980771F082832F7D20642383268160
:1040100037812150310937832683992708958FEFFF
:0E4020009FEF0895992788270895F894FFCF01
:10402E00010101012000000000000000000000005E
:10403E000000002000000000000000000000000052
:10404E0000004E6F20726573706F6E7365210047AE
:10405E005053206E6F7420636F6E6E65637465646B
:10406E002100200000000000000000000000000001
:10407E000000000000000000000000000000000032
:10408E000000000000000000000000000000000022
:10409E0000000000000000000000000000000039D9
:1040AE00396839396D39397300000000000000009D
:1040BE000000000000000000000000000076244711
:1040CE0050474C4C000071770061112000657364FD
:1040DE0070787A12726774127663667568790D62FB
:1040EE006E6A6F6C6908246D6B0051570041112088
:1040FE000045534450585A1252475412564346558F
:10410E0048590D424E4A4F4C49083D4D4B00233104
:10411E00002A11203032343540383712332F28120E
:10412E003F39365F3A290D212C3B2B222D083D2E8F
:10413E0060012474696D65002464697300246770DE
:10414E0073002000000000000000000000000000CE
:10415E00000000000000000000244750474C4C2C8B
:10416E0025642E256C642C252A632C25642E256C43
:10417E00642C252A632C2532642532642532642E64
:10418E0030302C25632C252A73006C6174693A003B
:0E419E006C6F67693A0025642E256C64000082
:00000001FF
